:020000040800F2
:100000008040002079020008E71900083D19000827
:10001000E5190008010700089D37000800000000EE
:10002000000000000000000000000000651B000848
:100030008107000800000000631B0008711B000816
:10004000930200089302000893020008930200083C
:10005000930200089302000893020008930200082C
:10006000930200089302000893020008930200081C
:10007000930200089302000893020008930200080C
:1000800093020008930200089302000893020008FC
:1000900093020008930200089302000893020008EC
:1000A00093020008930200089302000893020008DC
:1000B00093020008930200089302000893020008CC
:1000C00093020008930200089302000893020008BC
:1000D00093020008930200089302000893020008AC
:1000E000930200089302000893020008930200089C
:1000F000930200089302000893020008930200088C
:10010000930200089302000893020008930200087B
:10011000930200089302000893020008930200086B
:10012000930200089302000893020008930200085B
:10013000930200089302000893020008930200084B
:10014000930200089302000893020008E9190008CE
:10015000930200089302000893020008930200082B
:10016000930200089302000893020008930200081B
:1001700093020008930200089302000800000000A8
:10018000930200089302000800F002F800F064F8FF
:100190000AA090E8000C82448344AAF10107DA45E2
:1001A00001D100F059F8AFF2090EBAE80F0013F0D0
:1001B000010F18BFFB1A43F0010318476C3600000B
:1001C0008C36000010F8013B0A4413F0030408BF0A
:1001D00010F8014B1D1108BF10F8015B641E05D01B
:1001E00010F8016B641E01F8016BF9D1002D15D0D8
:1001F00010F8014B03F00C030C2BA1EB04040ABF15
:1002000010F8013BA4EB8314A4EB032405F10103D4
:1002100014F8016B5B1E01F8016BF9D5914238BFF0
:1002200010F8013BD1D3704700230024002500269D
:10023000103A28BF78C1FBD8520728BF30C148BF49
:100240000B6070471FB503F0E1FA9DE8030000F072
:1002500079F91FBD10B510BD00F0D0F91146FFF7B8
:10026000F1FF03F0ADFA00F0EEF903B4FFF7F2FF8F
:1002700003BC00F01FFA0000094880470948004706
:10028000FEE7FEE7FEE7FEE7FEE7FEE7FEE7FEE746
:10029000FEE7FEE704480549054A064B70470000A3
:1002A000091C000889010008801C002080400020F3
:1002B000803C0020803C002070B5064600F026F906
:1002C000056806F10B0020F00704B4429CBF002033
:1002D00070BD2B466A68BAB11068A04210D304F111
:1002E000080188423CBF5068586007D35168101914
:1002F00041601168091B016058601460101D70BDD9
:1003000013465268002AE7D12146284600F006F934
:100310000028DED170BD70B50446051F00F0F6F868
:100320000068002C14BF446870BD002C18BFAC429C
:100330003CBF20466468F8D301680A18AA4218BF77
:10034000456003D12A6805461144016028684119B7
:10035000A1421CBF6C6070BD61686960216808447F
:10036000286070BD53EA020C00F069802DE9F04B63
:100370004FF00006002B1FBFB3FA83F503FA05F414
:1003800024FA05F65E4012BF1643B2FA82F502FA6D
:1003900005F4C5F120051EBF22FA05FC44EA0C0451
:1003A000203556EA044C4FEA144418BF641C4FF041
:1003B00000084FF00009904271EB030C39D300297B
:1003C00019BFB1FA81F701FA07F6B0FA80F700FA1F
:1003D00007F6C7F120071EBF20FA07FC46EA0C0605
:1003E0002037B6FBF4FCA7EB0507103F07F01F0B07
:1003F000CBF120060CFA0BFB2CFA06F644BFB346F1
:100400000026202FA4BF5E464FF0000B5BEA060CCF
:1004100008BF4FF0010B19EB0B09ABFB027C48EB5B
:100420000608C01B06FB02CC0BFB03CC71EB0C01D6
:10043000C1E70B46024641464846BDE8F08B13B57E
:100440004FF000004FF00001AFF30080BDE81C400A
:10045000704710B5203AC0F00B80B1E81850203A30
:10046000A0E81850B1E81850A0E81850BFF4F5AF54
:100470005FEA027C24BFB1E81850A0E8185044BFDE
:1004800018C918C0BDE810405FEA827C24BF51F84B
:10049000043B40F8043B08BF7047D20728BF31F83F
:1004A000023B48BF11F8012B28BF20F8023B48BF90
:1004B00000F8012B70474FF0000200B51346944638
:1004C0009646203922BFA0E80C50A0E80C50B1F1AC
:1004D0002001BFF4F7AF090728BFA0E80C5048BFC0
:1004E0000CC05DF804EB890028BF40F8042B08BF5E
:1004F000704748BF20F8022B11F0804F18BF00F85A
:10050000012B7047704770477047000000487047E4
:10051000281C0020704770477047704738B5044664
:100520000A4600206946AFF30080002808BF38BDA6
:1005300002460099204600F03FF8012038BD012016
:1005400000F054B8F8B5AFF30080054600200C4623
:10055000102000BF0646A819A0420DD932466946B0
:100560000020AFF30080070008BF00F03FF80098BC
:10057000A04218BF0546C419FFF7C8FF056007462B
:10058000F01D20F007004619284600F00AF8B44292
:1005900008BFF8BDA21B31463868BDE8F84000F03E
:1005A0000BB800210160C0E90110704710207047AE
:1005B00000487047201C0020034640688C460028F5
:1005C00018BF88423CBF03464068F8D318681844F7
:1005D000884207D00CF1030020F00700001D411AEB
:1005E000521A0146081D0A60FFF795BE10B500F0CB
:1005F00039F8BDE8104000F02FB870477546FFF796
:10060000D7FFAE4605006946534620F007008546F1
:1006100018B020B5FFF73EFEBDE820404FF00006C1
:100620004FF000074FF000084FF0000B21F00701DA
:10063000AC46ACE8C009ACE8C009ACE8C009ACE81D
:10064000C0098D46704710B50446AFF300802046C0
:10065000BDE81040FFF709BE002801D000F02AB81D
:100660007047000010B5012805D0002103A000F05C
:1006700027F8012010BD09A1F8E7000053494752AF
:10068000544D454D3A204F7574206F662068656162
:1006900070206D656D6F7279000000003A2048652A
:1006A0006170206D656D6F727920636F7272757005
:1006B0007465640001491820ABBEFEE72600020005
:1006C00070B505460C460A2000E06D1C00F011F8DC
:1006D00035B128780028F8D102E0641C00F009F850
:1006E00014B120780028F8D1BDE870400A20AFF39B
:1006F000008008B569468DF800000320ABBE08BD38
:10070000FEE70020704700207047000010B500226F
:100710000449054801F08FFB0449034801F082FBBE
:10072000002010BD2014002048030020200C0020D1
:1007300010B50146034801F075FB024801F057FB74
:10074000002010BD48030020002070470A460A49D7
:1007500010B50968D1F814320BB1012010BD074B58
:10076000C3F8BC120146184601F065FBBDE8104015
:10077000024801F0CABB0000A0000020480300208E
:10078000704772B6FEE7000070B5044600F006F947
:100790000546601C02D004480078044400F0FEF8CE
:1007A000401BA042FAD370BD1C0100202DE9F84F78
:1007B000DFF8BCA1002201250AF1040B03264FF04B
:1007C0000F090BF1040E00BF0B6805FA02F4234079
:1007D000A34270D10F7907F00307012F01D0022F38
:1007E00016D187684FEA420806FA08FC27EA0C0788
:1007F000D1F80CC00CFA08FC4CEA070CC0F808C091
:100800004768A7430C79C4F3001494403C43446008
:100810000C79E443A4070AD0C4684FEA420C06FAF4
:100820000CF7BC438F6807FA0CF72743C7600C79B5
:1008300004F00304022C12D1D40800EB840CDCF881
:1008400020405707FF0E09FA07F824EA0804D1F8F8
:10085000108008FA07F848EA0408CCF820800468F9
:100860004FEA420C06FA0CF7BC430F7907F0030776
:1008700007FA0CF7274307604C6814F4403F70D028
:100880003C4C276847F480472760246822F0030720
:1008900004F480440094384C07EB040CDCF808485E
:1008A00097074FEA177809FA08F7BC43334FB84265
:1008B00002D1002724E054E0314FB84201D1012792
:1008C0001EE0304FB84201D1022719E02E4FB84246
:1008D00001D1032714E02D4FB84201D104270FE0C6
:1008E0002B4FB84201D105270AE02A4FB84201D167
:1008F000062705E0284FB84201D1072700E0082766
:1009000007FA08F72743CCF80878DAF8004057468A
:10091000D1F804C09C435FEACC3C00D51C433C604A
:10092000DBF800405F46D1F804C09C435FEA8C3C92
:1009300000D51C433C60DEF800407746D1F804C087
:100940009C435FEACC2C00D51C433C60084F0C371D
:100950003C68D1F804C09C435FEA8C2C00D51C4352
:100960003C60521C102AFFF42FAFBDE8F88F000046
:10097000003C014044380240003001400000024089
:100980000004024000080240000C02400010024037
:100990000014024000180240001C02400148806818
:1009A000704700001C010020024881680278114451
:1009B000816070471C0100200B4810B5016841F4AC
:1009C00000710160016841F480610160016841F4D7
:1009D00080710160032000F06FF80F2000F006F82E
:1009E00000F024F8002010BD003C024070B50D4D11
:1009F00004464FF47A712878B1FBF0F00A4909688F
:100A0000B1FBF0F000F086FF48B9102C07D20022AD
:100A10002146501E00F030F800206C6070BD0120AF
:100A200070BD00001C010020280100200A4808B504
:100A3000016841F480410160006800F4804000904A
:100A40000548001F016841F080510160006800F016
:100A50008050009008BD000044380240002809DBA7
:100A600000F01F02012191404009800000F1E020C8
:100A7000C0F8001170470000F0B40E4B1B680C4624
:100A8000C3F30223C3F10705042D00D90425191D62
:100A9000072901D2002300E0DB1E012606FA05F13A
:100AA000491E214099409E40761E16403143F0BCBD
:100AB00002F075BE0CED00E0064900F00702086880
:100AC0004FF6FF03184040EA0220034A1043086033
:100AD000704700000CED00E00000FA057047006868
:100AE000416200207047F0B50368586A39B19C6ACA
:100AF0004FF4827600EB144400204D1E0AE040EAD9
:100B0000024098620FE006EB8007DF59401C04EBBF
:100B10001744C0B2A842F6D344EA02404FF48072B0
:100B200002EB810158500020F0BDD0F8040401F020
:100B3000D0BDC1EBC10200EB8202D0F80404926C7C
:100B400001F03DBDC1EBC10200EB8202D0F804040C
:100B5000D2F8082201F087BDD0F8040401F0BBBD33
:100B600070B504460B0601F00F00C0EBC00104EBAA
:100B700081014FF001024FF0000503D581F83D20BF
:100B80003C3103E081F8FD5101F5FE71087094F8E5
:100B9000BC03012808D084F8BC23206802F064F963
:100BA00084F8BC53002070BD022070BD70B50446AF
:100BB00001F00F006268904201D9012070BD0B0660
:100BC00001F00F01C1EBC10104EB81014FF0010203
:100BD0004FF0000503D581F83D203C3103E081F85A
:100BE000FD5101F5FE718D70087094F8BC03012869
:100BF00008D084F8BC23206802F030FB84F8BC5392
:100C0000002070BD022070BD01F00F01C1EBC101D9
:100C100000EB8100D0F8140270472DE9F041044642
:100C20000F0601F00F00C0EBC00104EB81014FF093
:100C300001064FF0000503D581F83D603C3103E02B
:100C400081F8FD5101F5FE7108708A60CB704A7819
:100C500002B1C880022B00D10D7194F8BC030128A9
:100C600009D084F8BC63206802F056F8284684F85E
:100C7000BC53BDE8F0810220FBE770B50C4601F0E3
:100C80000F05C5EBC50100EB8101C1F81032C1F8B9
:100C900008220023C1F8143281F8FD3181F8FC519B
:100CA000036901F5FE71012B00D10A612207027C64
:100CB000006803D002F02AFB002070BD02F016FA93
:100CC000FAE770B504460D4601F00F0061688842EE
:100CD00001D9012070BD29064FF000064FF0010236
:100CE00007D5C0EBC00104EB810181F83D203C3108
:100CF00007E0C5EBC50104EB810181F8FD6101F559
:100D0000FE718A70087094F8BC03012807D084F83B
:100D1000BC23206802F0CEFA280702D007E00220A8
:100D200070BD217C04F57172206802F06BFA84F8C2
:100D3000BC63002070BD70B50C4601F00F05C5EB1B
:100D4000C50100EB81010B658A6400234B6501231B
:100D500081F83D3001F83C5F0369012B00D10A6145
:100D60002207027C006803D002F0D0FA002070BD98
:100D700002F0BCF9FAE700002DE9FC5F05680446C3
:100D8000284602F0F4FB00287ED1206802F01BFC0C
:100D9000002879D0206802F016FC800704D521686D
:100DA000486900F002004861206802F00CFCC106AE
:100DB00004F57170009034D52068816921F010012C
:100DC00081612F6A07F00F00C0EBC00004EB8006C2
:100DD000C7F3434006F5FE76022802D0062811D05C
:100DE0001AE047F6F070074216D0C7F30A1217460A
:100DF0002846F16802F0EBFBF0683844F060B06917
:100E0000384408E008222846009902F0E0FBB06967
:100E1000C7F30A110844B0612068816941F01001EC
:100E20008161206802F0CFFB00034FF0010A4FF010
:100E3000080B5BD50026206802F0A4FB0746DFF80C
:100E4000689351E0F8074DD0F1B2206802F0B3FB8F
:100E50008046C00707D005EB4611C1F808AB314604
:100E6000204600F0C7FD5FEA087022D505EB461169
:100E7000C1F808BB2068016C00EB46100191D0F866
:100E8000082B494507D900E08BE1110403D54FF445
:100E90000041C0F8081B204600F076FA019848454A
:100EA00007D92069012804D120680121009A02F0A5
:100EB000A9F95FEAC86004D505EB46111020C1F816
:100EC000080B5FEA886004D505EB46112020C1F8C5
:100ED000080B5FEA884005D505EB46104FF400513A
:100EE000C0F8081B7F08761C002FABD1206802F0E9
:100EF0006AFB40034FF000095CD5206802F03BFB21
:100F00000746002654E0F80750D0F1B2206802F0FE
:100F100040FB8046C00723D006F00F020AFA02F019
:100F2000D5F834288243C5F8342805EB4610C0F8BC
:100F300008A9206901280FD1C6EBC60004EB800088
:100F4000D0E911211144816436B9206D20B920689F
:100F50000121009A02F056F9F1B22046FFF7E9FDAF
:100F60005FEA087003D505EB4611C1F808B95FEADE
:100F7000C86004D505EB46111020C1F808095FEAE6
:100F8000486004D505EB46114020C1F808095FEA26
:100F9000887004D505EB46110220C1F808095FEA04
:100FA000086003D53146204600F08AFD7F08761C94
:100FB000002FA8D1206802F006FB002811DAD5F82E
:100FC000040820F00100C5F8040894F8F40301288F
:100FD00029D0204600F0BCF92068416901F00041A9
:100FE0004161206802F0EFFA00050BD5D5F808083A
:100FF000C00702D0204600F0EFF92068416901F4F3
:1010000000614161206802F0DEFAC00468D5D5F8BD
:10101000040820F00100C5F804081021206802F03F
:1010200083FA002127E084F8F49300212046FFF79B
:1010300055FDD1E705EB41104FF67F32C0F8082986
:10104000D0F8003923F40013C0F80039D0F8003983
:1010500043F00063C0F80039C0F8082BD0F8002B2B
:1010600022F40012C0F8002BD0F8002B42F00062EE
:10107000C0F8002B491C60688842DBD8D5F81C08F2
:1010800040F00110C5F81C08206B60B1D5F8840849
:1010900040F00B00C5F88408D5F8440840F00B0078
:1010A000C5F844080CE0D5F8141842F22B000143AF
:1010B000C5F81418D5F8100840F00B00C5F8100852
:1010C000D5F8000820F4FE60C5F80008217C2068EF
:1010D000009A02F097F82068416901F4805141615B
:1010E000206802F070FA800415D5206801F054FEE3
:1010F000206802F02FFAE06000F020FA0146227B1F
:10110000206802F0C3FA204600F00CF9206841691B
:1011100001F400514161206802F055FA000707D53B
:10112000204600F019F92068416901F00801416189
:10113000206802F048FAC00208D50021204600F0DD
:1011400035F82068416901F480114161206802F09E
:101150003AFA800208D50021204600F02BF82068DA
:10116000416901F400114161206802F02CFA40004D
:1011700007D52046FFF7D9FC2068416901F080417E
:101180004161206802F01FFA40070AD520684568CF
:10119000680702D52046FFF7DFFC20684168294335
:1011A0004160BDE8FC9F00000A30544FD0F80404B1
:1011B00001F0ECBAD0F8040401F0F8BA2DE9F041DE
:1011C0008AB0040005D094F8BD032668002520B13C
:1011D00008E001200AB0BDE8F08184F8BC53204645
:1011E00000F05EF8032084F8BD03F06BC00500D466
:1011F0002561206801F074FF04F11001282288465F
:101200006846FFF726F994E80F0001F0D3FD0226A7
:10121000C8BB0021206802F0F9F9002001270EE088
:10122000C0EBC00104EB810181F83D7001F83C0F77
:10123000C880CD708D60CD60401CC0B24D616168CA
:101240008142EDD8002011E0C0EBC00104EB810128
:1012500081F8FD5181F8FC0181F8FF51C1F8045279
:10126000C1F80852401CC0B2C1F8105261688142F6
:10127000EAD8282241466846FFF7EBF894E80F00C9
:1012800001F074FE10B184F8BD63A2E784F8385011
:1012900084F8BD73206801F05BFE00209AE700002F
:1012A00010B586B0044614216846FFF704F920689B
:1012B000B0F1A04F2FD119480021026842F001027D
:1012C0000260006800F0010005904FF4C0500090EB
:1012D0000220CDE90101032003900A200490694611
:1012E0000F48FFF763FA0D48001D016841F08001C7
:1012F00001600A481430016841F4804101600068CF
:10130000002200F48040059011464320FFF7B4FB13
:101310004320FFF7A3FB06B010BD000030380240A9
:101320000000024070B50446C068012570B1022873
:1013300001D0FFF726FA2946D4F8040401F0A2FAF6
:10134000D4F80404BDE8704001F055BA0025F2E776
:10135000D0F8040401F07CBAD0F8040401F082BA99
:1013600010B5044690F8BC0301280BD0012084F886
:10137000BC0384F83810206802F076F9002084F865
:10138000BC0310BD022010BDD0F8042400F571711B
:10139000104601F083BA10B50446006894F8BC13F7
:1013A000012906D0012184F8BC13A16A012902D0C9
:1013B00008E0022010BDA169012903D0816B41F42E
:1013C00080318163206802F095F8206801F0B2FD59
:1013D000002084F8BC0310BD10B50446D0F8040406
:1013E00001F09EFA2068D0F8001E41F00101C0F81B
:1013F000001E206A002804D00248016841F006015E
:10140000016010BD10ED00E02DE9F0470E4605002B
:1014100065D0DFF81481D8F80000F7B200F00700BB
:10142000B04207D288F80070D8F8000000F007003A
:10143000B04254D128683D4C810712D5400703D5EE
:10144000206840F4E05020602878000703D5206829
:1014500040F4604020602068A96820F0F000084354
:1014600020602878C0072DD03049686808390128E5
:1014700012D0022813D0032811D009688907002947
:101480002DDA216821F0030101432160FFF786FA7C
:10149000814641F2883A0EE009688903EFE709685E
:1014A0008901ECE7FFF77AFAA0EB0901514502D96F
:1014B0000320BDE8F0872068696800F00C00B0EBFD
:1014C000810FEFD1D8F80010404601F00701B1427A
:1014D00007D90770006800F00700B04201D0012072
:1014E000E7E72878400705D52068E96820F4E05050
:1014F000084320602878000706D52068296920F471
:10150000604040EAC100206000F01EF82168084AEF
:10151000C1F30311515CC8400649086006480068E1
:10152000FFF764FA0020C4E7003C0240083802409C
:10153000163800082801002020010020014800681A
:101540007047000028010020154810B5006810F011
:101550000C02144813D04110042A0FD0082A0ED1CF
:101560000F4C241F2268236802F03F025B0207D55C
:101570002068C0F38810A0FB010106E0084610BDFA
:101580002168C1F38811A1FB00010023FEF7EAFEE8
:101590002168C1F30141491C4900B0FBF1F010BDC5
:1015A000083802400024F4002DE9F84F04006ED002
:1015B0002078DFF84C93C007A9F104054AD009F15F
:1015C00004000168C1F38101012908D00068C0F35B
:1015D000810002280AD1D9F80000400206D5286807
:1015E000800337D560680028E1D033E06068B0F54B
:1015F000803F10D0B0F5A02F286810D020F48030A4
:101600002860286820F4802028606068A8B1FFF76F
:10161000C5F906460DE0286840F48030F4E740F450
:1016200080202860F7E700BFFFF7B8F9801B642827
:1016300073D828688003F7D50CE0FFF7AFF90646AA
:1016400005E000BFFFF7AAF9801B6428F0D82868DE
:101650008003F7D42078DFF8AC8280074FF0000ACF
:101660003ED5A748001D016811F00C0F08D0006896
:10167000C0F3810002280BD1D9F80000400207D442
:101680002868800716D5E068012800D112E033E110
:10169000E068B8B10120C8F80000FFF77FF90646FE
:1016A00005E000BFFFF77AF9801B0228C0D8286840
:1016B0008007F7D52868216920F0F80040EAC100CA
:1016C00028600DE0C8F800A0FFF768F9064604E0BE
:1016D000FFF764F9801B02281FD828688007F7D419
:1016E0002078000722D5864F87486169703771B12D
:1016F00001210160FFF752F9064604E0FFF74EF9B9
:10170000801B022809D838688007F7D50EE0C0F89A
:1017100000A0FFF743F9064605E082E0FFF73EF937
:10172000801B02287DD838688007F7D420784007CE
:1017300068D5DFF8CCB100270BF13C0BDBF80000DB
:10174000C0000BD4DBF8001041F08051CBF8001042
:10175000DBF80000012700F0805000906B4E3068ED
:10176000C00510D4306840F480703060FFF716F97F
:10177000009005E0FFF712F90099401A022850D8AE
:101780003068C005F6D55E4EA0686C3601280FD0D3
:101790000528306810D020F001003060306820F05B
:1017A00004003060A068B8B1FFF7F8F800900FE0CF
:1017B000306840F00100F4E740F004003060F7E7E3
:1017C000FFF7ECF80099411A41F28830814266D85F
:1017D00030688007F4D50EE0FFF7E0F8009007E0EE
:1017E000FFF7DCF80099411A41F28830814256D85F
:1017F00030688007F4D42FB1DBF8001021F080515D
:10180000CBF80010A069C8B33D49091D0968C1F3B0
:10181000810102294AD00228504607D0C8F860004A
:1018200000E03CE0FFF7BAF804463BE04746C8F862
:101830006000FFF7B3F8064605E000BFFFF7AEF81B
:10184000801B02282BD828688001F7D4D4E907012F
:101850000843A16A2E4A490802EB0141626A41EA43
:101860008211084394F82C1040EA0161C9F8001075
:1018700001203866FFF792F8044606E03EE000BF1C
:10188000FFF78CF8001B022809D828688001F7D5DB
:1018900034E000BFFFF782F8001B022802D90320C2
:1018A000BDE8F88F28688001F4D427E00128F7D03C
:1018B000D9F80000E26900F4800191421CD1226A4B
:1018C00000F03F01914217D147F6C071626A0140B2
:1018D000B1EB821F10D1A26A4FF0FF3300F4403108
:1018E00003EB5202B1EB024F06D194F82C1000F03A
:1018F0007060B0EB016F01D00120D1E70020CFE78D
:101900000438024000004742800E47420070004009
:101910000000FFFF10B5401EB0F1807F01D3012011
:1019200010BD4FF0E02460610F21601701F037FF18
:101930000020A06107202061002010BDFEE700000C
:10194000F0B500230A24302537261F4611E000BFDA
:10195000B4EB107F02D905EB107C01E006EB107CA4
:1019600001F813C001EB430C00015B1C8CF8017003
:10197000DBB29342ECD3F0BD094808B5016841F0F1
:1019800080010160016801F080010091016841F06F
:1019900001010160006800F00100009008BD000036
:1019A0003038024010B500220B490C4800F0E2FD2F
:1019B00008B1FEF7E6FE0A49084800F0D9FF08B171
:1019C000FEF7DFFE054801F04DF8002803D0BDE822
:1019D0001040FEF7D6BE10BD0000002048030020D6
:1019E00064000020FEE7FEE70148FFF7C5B90000EC
:1019F000180600202DE9F04103680D4604461E6CD0
:101A000003EB4511D1F8080BD4F810E04FF4004770
:101A10004FF0200C04F57172BEF1010F09D0DFF810
:101A200098E0764539D1020432D500BFC1F8087B71
:101A30003FE0224B5FEA007E04D59E4239D9000484
:101A4000F4D436E05FEA806E02D5C1F808CB30E00E
:101A500010F0280F2DD19E4201D90004E6D4C5EB29
:101A6000C50004EB8000D1F8101BD0F80432C1F39C
:101A70001201591AC0F81412D0F808121944C0F80B
:101A8000081295B9D4F8100278B9012120680AE04B
:101A900080060AD5C1F808CB07E035B9D4F81002A2
:101AA00018B90021184601F0ADFBE9B22046FFF756
:101AB00049F80020BDE8F0810A31544F0A30544FF4
:101AC0002DE9F84F0E46C1EBC60100EB81048146BB
:101AD0000568D4E914103C34884202D90120BDE8DD
:101AE000F88F081AA168814200D20846C01C8708F6
:101AF00005EB46181BE000BFA0EB010AA0685045AB
:101B000000D282460AF10300870899F8100000907D
:101B10001FFA8AF3F2B22846E16801F02BFEE16871
:101B200001EB0A00E060A16901EB0A00A061D8F8AE
:101B3000180980B2B84205D3D4E90501814201D227
:101B40000028D9D1D4E90501884208D806F00F0150
:101B500001208840D5F834188143C5F83418002096
:101B6000BDE7704770470178407841EA0020704730
:101B7000FEF71ABF30B593B030216846FEF79BFCE4
:101B800014210CA8FEF797FC1D480025016841F0C0
:101B900080510160006800F0805011901948016880
:101BA00041F4804101600068022400F480401190FB
:101BB00001200090000401908001CDE9064004203E
:101BC0000890A820CDE9090407200B906846FFF78C
:101BD000EBFC08B172B6FEE70CA90F2081E83100DA
:101BE0004FF4A0500F904FF48050109005210CA896
:101BF000FFF70AFC002801D072B6FEE713B030BD33
:101C000040380240007000400248016841F4700111
:101C10000160704788ED00E02DE9F0410C46D0F8F6
:101C2000C422D0F8BC12F9B104EB840300EB8305A5
:101C30000026AB694BB1C4EBC40702EB8702526CC0
:101C4000B3FBF2F702FB173282B1C1F81462D0F88D
:101C5000C00203692BB1D1F80802224601F50471D4
:101C600098470020BDE8F0810320FBE700231A46D7
:101C70002146AE6100F05DFEF3E770B5D0F8BC42DE
:101C800005466CB100F033FDC4F80C02D5F8C01263
:101C9000D4F80402CA6804F503719047002070BDAF
:101CA000032070BD70B50446812100F07FFC002543
:101CB00025870121204600F079FCA4F87851822183
:101CC000204600F073FCA4F84C50A4F84E50D4F811
:101CD000BC0248B1D4F8C00204F52F7440688047B4
:101CE000206801F014F82560002070BD10B5D0F810
:101CF000BC4284B1D0F8C01259B194F80002FF2858
:101D000007D08B6894F8012221469847FF2084F879
:101D10000002002010BD032010BD00000A21018038
:101D20000048704738020020432101800048704776
:101D300088020020432101800048704744020020AF
:101D40004321018000487047CC0200202DE9F04774
:101D500004464FF4077000F0DCFF05004FF0000769
:101D600035D0C4F8BC52207C4FF010084FF40079F5
:101D7000012680B3402302228121204600F026FD67
:101D80002687402302220121204600F01FFDA4F8EF
:101D90007861A4F84E80082303228221204600F0B7
:101DA00015FDA4F84C60D4F8C00200688047C5F85F
:101DB0001472C5F81872207CD5F80422A8B140230B
:101DC0000121204600F00EFD0020BDE8F087022032
:101DD000C4F8BC72F9E7FFE74B4602228121204696
:101DE00000F0F4FC26874B46CCE74B46E8E710B5FD
:101DF000D0F8BC1251B1027C002AD1F8042207D0DD
:101E00004023012100F0EEFC002010BD032010BD96
:101E10004FF40073F5E719B1C0F8C0120020704705
:101E200003207047D0F8BC0218B1C0F8041200209B
:101E3000704703207047D0F8BC0228B1C0F81022C8
:101E4000C0F8081200207047032070472DE9FC41BC
:101E50000646D0F8BC7200200C468DF80000ADF8A4
:101E60000400054637B1207810F0600128D0202901
:101E700044D102E00320BDE8FC81E288C2B1000643
:101E800060780AD5D6F8C0128B6839469847E28840
:101E9000072A00D90722394628E087F80002A079EE
:101EA00087F80102E2883946304600F03EF92AE020
:101EB000D6F8C012607800228B682146984722E04D
:101EC000607830B101281ED00A2809D00B2815D11E
:101ED00010E096F89C02032810D1022201A905E027
:101EE00096F89C02032809D101226946304600F089
:101EF00036F908E096F89C02032804D021463046C3
:101F000000F008F903252846B5E710B5D0F8BC1253
:101F1000012219B1D1F8143213B10FE0032010BD22
:101F20000122C1F81422D1F81022C262D1F8103275
:101F3000D1F80822812100F0FCFC0022104610BDDF
:101F400010B5D0F8B8220AB152689047002010BDF1
:101F500070B50C460546002041F0800181290BD068
:101F600083290ED1284600F0BBF806482146426975
:101F70002846BDE870401047284600F0A5F8024802
:101F8000F4E770BD300100201003002070B5054655
:101F900000200C46012901D0822C09D1284600F0EE
:101FA00093F80448214682692846BDE870401047EE
:101FB00070BD00001003002070B50D46064600F00D
:101FC00083F8084829464268304690470446304620
:101FD00000F086F80448294642683046904720447D
:101FE000C0B270BD100300203001002010B50446BF
:101FF00000F06AF8024801692046BDE81040084731
:10200000100300200A2101800048704710010020C1
:102010006C21018000487047A400002070B50E4676
:1020200004460C49FFF7F7FE0B483146026820468C
:1020300090470A4DD4F8BC02314668600020C4F8CD
:10204000C0020748026820469047D4F8BC022860C6
:10205000002070BD50000020100300209C000020D4
:10206000300100202DE9F04107460878144D00F0BA
:102070000300144E0C46012802D002281DD113E0A3
:10208000A08840B1012801D0022816D1384600F0BE
:102090001BF8AA6803E0384600F022F8B26821462F
:1020A0003846BDE8F0411047A0880128EED08128CD
:1020B000ECD08228EAD08328EDD00020BDE8F08162
:1020C00010030020300100200349C0F8C01203496A
:1020D0004968C0F8BC127047500000209C000020E6
:1020E0000021C0F8C01202490968C0F8BC1270474C
:1020F0009C000020134610B50A46002100F072FB38
:10210000002010BD134610B50A46002100F011FC56
:10211000002010BD10B50446802100F0EFFB2046E2
:10212000BDE81040002100F0E9BB10B50323C0F862
:102130009432C0F858211346C0F85C210A460021A9
:1021400000F050FB002010BD10B50521C0F894121E
:1021500000231A46194600F045FB002010BD10B5BB
:102160000223C0F8943282611346C2610A460021FC
:1021700000F0DFFB002010BD10B50421C0F8941260
:1021800000231A46194600F0D4FB002010BD0000C1
:1021900010B50A46024903A000F0E5F8004810BD5A
:1021A000200A002048494420436F6E66696700009A
:1021B00012200880004870472000002010B50A4611
:1021C000024903A000F0CFF8004810BD200A00200B
:1021D00048494420496E7465726661636500000079
:1021E00004200880004870471C00002010B50A46F3
:1021F000024903A000F0B7F8004810BD200A0020F3
:1022000053544D6963726F656C656374726F6E6968
:102210006373000010B50A46024903A000F0A3F85A
:10222000004810BD200A002053544D333220487519
:102230006D616E20696E7465726661636520616EA2
:10224000642063646300000010B51A2008800A4807
:102250000168001D0468001D0068081809D00822E4
:102260000649FFF76DFB0549042210312046FFF7B0
:1022700067FB0248801E10BD107AFF1F3600002049
:10228000F8B504460020ADF8000048880D46010A64
:1022900008295FD2DFE801F05E0409175E5E3C4565
:1022A000D4F8B412207C0A6819E0207C02260028A9
:1022B000D4F8B80205D0C16A68468847014646701E
:1022C00039E0816AF8E7C0B2062843D2DFE800F0BF
:1022D000030A1014181CD4F8B402426805E06946D9
:1022E00090471CE0D4F8B402826892B3207CF6E7F1
:1022F000D4F8B402C268F8E7D4F8B4020269F4E78B
:10230000D4F8B4024269F0E7D4F8B4028269ECE789
:10231000207CF0B9D4F8B802416B68468847014682
:1023200009E0207CA8B9D4F8B802016B6846884758
:10233000014607204870EA888AB1BDF8000040B124
:10234000824200D90246ADF800202046FFF707FF81
:10235000F8BDFFE729462046FFF7DCFEF8E72046F8
:10236000FFF70AFFF4E770B5002300281ED0002510
:10237000044602E06D1CEDB2641C2678002EF9D1F3
:10238000022404EB450414801278CA545B1C032217
:10239000CA5400245B1C06E0CA545B1CDAB28C549D
:1023A000521CD3B2401C0278002AF5D170BD010046
:1023B0004FF0000004D0012901D0022901D00320F0
:1023C000704701207047D0F8BC0200210173084615
:1023D000704770B50446832100F0E8F80025A4F8A2
:1023E0006050A4F86250D4F8BC0218B100F08FFC21
:1023F000C4F8BC52002070BD0A210180004870471B
:10240000E00100202221018000487047680100207F
:1024100022210180004870478C0100202221018088
:1024200000487047B001002070B50446102000F04D
:1024300070FC05004FF0000612D0C4F8BC52207C9E
:1024400090B10520A4F862000423032283212046D2
:1024500000F0BCF90120A4F860002E73002070BDCC
:102460000220C4F8BC6270BD0720EBE713460A4A9D
:1024700010B5126822B190F89C42032C02D009E0FA
:10248000032010BD147B2CB9012414730A46832148
:1024900000F04FFA002010BD9C00002038B5034624
:1024A000D0F8BC020024ADF8004030B10A7812F038
:1024B000600219D0202A51D101E0032038BD4A78AA
:1024C000022A0ED0032A06D00A2A06D00B2A45D1AA
:1024D0008978016046E001222FE04988090A4160BD
:1024E00040E00122011D29E04A78062A10D003DCD1
:1024F0003AB1012A32D135E00A2A23D00B2A2DD154
:1025000028E093F89C02032828D10222694615E0AE
:1025100048882222B2EB102F05D1CA884A2A00D956
:102520004A22134809E02122B2EB102F16D110489D
:10253000CA881838092A00D9092201461846FFF727
:102540000EFE0FE093F89C22032A07D1012200F12E
:102550000801F3E793F89C22032A05D01846FFF7F9
:10256000D9FD0324204638BD89788160FAE7000050
:10257000EC01002078B10023C0F8B832C0F8C032B6
:10258000C0F8CC3209B1C0F8B412012180F89C1215
:10259000027000F0B1B80320704710B5D0F8C40243
:1025A000FEF704FBBDE81040FFF701BF10B5D0F8FF
:1025B000C402FEF7D5FABDE81040FFF7F8BE70B5CB
:1025C0001646044621B194F89C02032841D048E005
:1025D000D4F8941204F114000025022932D1D0E974
:1025E00002318B4206D95A1A826031462046FFF7E3
:1025F00089FD0FE0994214D14068884211D3D4F884
:10260000981288420DD2002211462046FFF77AFD2B
:10261000C4F8985200231A461946204600F0E2F802
:1026200010E094F89C02032805D1D4F8B802C168E0
:1026300009B1204688478021204600F05FF92046F6
:10264000FFF782FD94F8A00201280AD184F8A05275
:1026500007E0D4F8B80242691AB120469047002832
:1026600000D1002070BD10B51346044621B194F886
:102670009C02032823D02AE0D4F8941204F5AA700F
:10268000032924D1D0E9021291420AD98A1A826020
:10269000C068824200D3024619462046FFF72AFD51
:1026A00015E094F89C02032805D1D4F8B80201691A
:1026B00009B1204688472046FFF75EFD07E0D4F8C1
:1026C000B80282691AB120469047002800D1002044
:1026D00010BD0020704710B5012180F89C12D0F881
:1026E000B82212B1526801799047002010BDD0F88D
:1026F000C402FEF789BA000010B5017889BB1A49F7
:102700000222C1F80404C0F8C4124FF0A0400860CF
:10271000082048600020C1E90320C1E906200862C2
:102720004862C86208630846FEF748FD08B1FEF734
:1027300028F880210C48FEF7D2F9402200210A48EF
:10274000FEF7D1F9202201210748FEF7CCF920221B
:1027500002210548FEF7C7F9402203210248FEF78F
:10276000C2F9002010BD0000180600200A0601F082
:102770007F01D0F8C402C1EBC10100EB810002D59A
:1027800090F83E00704790F8FE01704710B5D0F801
:10279000B82222B190F89C32032B02D004E003202F
:1027A00010BD126A02B19047002010BD10B5D0F8DC
:1027B000B82222B190F89C32032B02D004E003200F
:1027C00010BD526A02B19047002010BD10B51C46E2
:1027D0001346D0F8C4022246FEF71FFABDE81040A7
:1027E000FFF7E5BD10B5D0F8C402FEF746FABDE824
:1027F0001040FFF7DCBD70B50125044680F89C52FF
:102800000020C4F894026060C4F8A402D4F8B802AE
:10281000E0B1D4F8BC1221B1426812B100212046C7
:1028200090470022402311462046FFF7CFFF402665
:10283000A4F864513346002280212046C4F8606128
:10284000FFF7C4FFA5840020266270BD032070BD81
:1028500090F89C12042903D190F89D1280F89C12E4
:102860000020704710B5D0F8B81221B190F89C2222
:10287000032A02D004E0032010BDC96901B18847D2
:10288000002010BD01740020704710B5D0F8C402BC
:10289000FEF766FDBDE81040FFF789BD70B5044640
:1028A00000F2AA20054600F04DF80120C4F8940279
:1028B000B4F8B002C4F8980294F8AA0210F01F010C
:1028C0000AD001290ED0022912D000F08001204642
:1028D000BDE8704000F012B829462046BDE87040BF
:1028E00000F0C2B829462046BDE8704000F0E6B9C5
:1028F00029462046BDE8704000F040B910B5D0F838
:10290000C402FEF7DEF9BDE81040FFF750BD10B578
:10291000D0F8C402FEF73FFDBDE81040FFF747BD09
:1029200090F89C1280F89D12042180F89C120020DF
:10293000704710B5D0F8C402FEF7FDF9BDE81040AD
:10294000FFF735BD70B5054611F8010B2870087802
:1029500068704C1C2046FFF706F96880A41C2046CE
:10296000FFF701F9A880A01CFFF7FDF8E88070BD13
:1029700038B504460020ADF8000049B1C4F8B812DB
:10298000C96A19B168468847C4F8CC02002038BD2E
:10299000032038BD02460320D2F8B832002B02D003
:1029A0001B681046184770472DE9F0410F462C4E22
:1029B0008978002504463170012906D93946204618
:1029C000FFF7A8FB0320BDE8F08194F89C020228E1
:1029D0000CD003281DD039462046FFF79BFB3178E9
:1029E0002046FFF7ADFA03252846ECE799B32046C9
:1029F0006160FFF7CFFF050004D039462046FFF79E
:102A000089FBF1E72046FFF7B7FB032084F89C021F
:102A1000EAE74FF00208C1B1606888421BD0C1B23A
:102A20002046FFF78DFA317820466160FFF7B2FF4C
:102A3000050010D039462046FFF76CFB217920466F
:102A4000FFF77EFA84F89C82CEE784F89C822046C9
:102A50006160FFF775FA2046FFF78EFBC4E70000C0
:102A60002C010020FFF753BF2DE9F0410A78002523
:102A700012F0600208D0202A01D0402A71D1D0F88B
:102A8000B8229268904731E04B78002201260A2B49
:102A900067D2DFE803F0415E6658660805662D29B7
:102AA000FFF7EEFB5FE004468888D8B9C888C8B94C
:102AB0004888802816D200F07F0794F89C020328EB
:102AC00010D084F89E7239462046FFF7DEFE20467D
:102AD000FFF752FB1FB1022084F89C0243E084F808
:102AE0009C6240E020463CE0FFF75EFF05463AE08E
:102AF000CB88012B35D190F89C32012B04D0022BCE
:102B000002D0032B2DD104E08260012200F10801E4
:102B100016E00122011D13E090F89C22012A03D047
:102B2000022A01D0032A1CD1CA88022A19D1C66000
:102B3000D0F8A41209B10321C160022200F10C01F6
:102B4000FFF70DFB0FE0498801290CD1C0F8A46202
:102B500011E090F89C32012B08D0022B06D0032BF9
:102B600004D0FFF7D7FA2846BDE8F081498801294B
:102B7000F9D1C0F8A422FFF7FFFAF4E72DE9F041FC
:102B80000D46044628780026097910F060000BD025
:102B9000202801D040286DD1D4F8B8022946826897
:102BA00020469047064686E06878A8B3012822D0E0
:102BB00003287CD194F89C02022802D0032876D105
:102BC0000BE0002973D0802971D02046FFF796FED4
:102BD00080212046FFF792FE6DE0688838B931B158
:102BE000802904D0E88810B92046FFF787FE2046E8
:102BF000FFF7C2FA5FE094F89C020228E1D00328B4
:102C000055D16888A8BB480602D02046FFF7C5FC0E
:102C10002046FFF7B1FABFE7FFE794F89C020027D0
:102C2000022802D0032842D111E009B180293ED107
:102C3000080601F07F0000EB800004EB800101D565
:102C4000143101E001F5AA7102220F602BE00806A1
:102C500001F00F0000EB800004EB80000BD5808CAE
:102C600040B101F07F0000EB800004EB80051435DB
:102C70000CE020E01BE0B0F86401C0B101F07F007F
:102C800000EB800004EB800505F5AA7541B18029B1
:102C900006D02046FFF76AFD10B10120286000E051
:102CA0002F60022229462046FFF759FA03E0294601
:102CB0002046FFF72FFA3046BDE8F08170B5064692
:102CC000087800240D4610F0600003D0202801D0C1
:102CD000402817D196F89C02012803D0022801D081
:102CE00003280FD1287903280CD8D6F8B8028268B7
:102CF000304690470446E888204306D13046FFF727
:102D00003BFA02E03046FFF705FA204670BDFDF7BA
:102D100002BB401CFDF7D0BA70B50A78012302F05F
:102D20000F054E78AB401B4CD0F81C58012E17D025
:102D300045EA0343C0F81C3800EB4210D0F8002BE2
:102D400012040BD4D0F8002B0B89C978C3F30A0303
:102D50001A4344EA81410A43C0F8002B002070BDA9
:102D60009BB21D43C0F81C5800EB4210D0F800394C
:102D70001B04F3D4D0F800390D89C978C5F30A05CE
:102D800089042B4341EA82510B432343C0F80039A5
:102D9000E4E7000000800010D0F800196FF30A018A
:102DA000C0F80019D0F8041841F48071C0F8041874
:102DB0000020704770B5044606990A9E049D0D9840
:102DC000012916D0E06840F04000E060204600F0A5
:102DD0002BF8A16B1EB321F48031A163012D07D123
:102DE000A16841F00601A160A16841F02001A16045
:102DF00070BDA16B21F48031A163E168094A1140E3
:102E0000E160E16821F44011E160012803D1E0684C
:102E100040F48010E060204600F006F8DEE741F460
:102E20008031DAE7BFFFBDFF08B500220D490092EF
:102E3000009B5B1C00938B420CD80369002BF7DAD4
:102E40000092026942F001020261009A521C009253
:102E50008A4201D9032008BD0269D207F5D10020BA
:102E600008BD0000400D030030B54C780A780123FE
:102E700000EB4212012C2CD0D2F8004B002C0BDAC4
:102E8000D2F8004B44F00064C2F8004BD2F8004B7B
:102E900044F08044C2F8004BD0F83C580C7804F061
:102EA0000F0403FA04F425EA0444C0F83C48D0F8BF
:102EB0001C48097801F00F018B4024EA0341C0F857
:102EC0001C18D2F8000B19490840C2F8000B00206A
:102ED00030BDD2F80049002C0BDAD2F8004944F09A
:102EE0000064C2F80049D2F8004944F08044C2F8B6
:102EF0000049D0F83C480D7805F00F0503FA05F5B8
:102F0000ADB2AC43C0F83C48D0F81C48097801F099
:102F10000F018B4099B28C43C0F81C48D2F80009CD
:102F200003490840C2F80009D1E700000078F3EF38
:102F3000007833ECD0F8001E21F00301C0F8001E29
:102F4000D0F8041821F00201C0F8041800207047DE
:102F5000D0F8001E21F00301C0F8001ED0F80418BC
:102F600041F00201C0F80418002070472DE9F04F2D
:102F700000250E460446DDF82CC0DDF824B0109F75
:102F80002846294604EB8002C2F80411401C0F2891
:102F9000F8D32046C7B1806B20F40012A263A06B67
:102FA00040F40022A26308468846C4F8000ED4F814
:102FB00000182046C4F80018BCF1010F16D0D0F854
:102FC000001841F0030116E0D0F8040840F00202B6
:102FD000C4F80428A06B40F40012A263A06B20F494
:102FE0000022A263A06B20F48022DBE7D0F8001857
:102FF0000BB141F00101C0F80018102100F094FA63
:1030000000B10125204600F07BFA00B101254046C1
:10301000C4F81088C4F81488C4F81C8800214FF044
:1030200000694FF0904A4FF67F3314E004EB4112F1
:10303000D2F800C9BCF1000F06DA11B1C2F800A93C
:1030400004E0C4F8009901E0C2F80009C2F81009D0
:10305000C2F80839491C8E42E8D8002115E000BFAB
:1030600004EB4112D2F800CBBCF1000F06DA11B12B
:10307000C2F800AB04E0C4F8009B01E0C2F8000B0A
:10308000C2F8100BC2F8083B491C8E42E8D8D4F8AD
:10309000101821F48072C4F81028A0616FF08040ED
:1030A0006061BBF1000F03D1A06940F01000A06186
:1030B000A06909490843A0610C9818B1A06940F0C3
:1030C0000800A061012F03D1A06904490843A06151
:1030D0002846BDE8F08F000000383C800400004026
:1030E000816821F0010181600020704770B50D7882
:1030F0004E78434CEBB200EB4313012E1FD0D3F8B4
:10310000100B6FF31200C3F8100BD3F8100B204014
:10311000C3F8100B486908B188684861D3F8100BF0
:1031200040F40020C3F8100BD3F8100B8C68C4F3E4
:1031300012042043C3F8100B012A55D058E04E6901
:10314000002ED3F8106932D06FF31206C3F810695D
:10315000D3F810692640C3F810694E698C68A642FE
:1031600000D94C61D3F8104944F40024C3F8104945
:10317000D3F810494E69C6F312063443C3F8104918
:10318000012A22D000EB4512D2F8003943F0044363
:10319000C2F800394A6932B3D0F83428097801F00E
:1031A0000F03012199400A43C0F8342826E0264045
:1031B000C3F81069D3F8104944F40024C3F8104947
:1031C000D3F810496FF31204D8E7096919B100EB7D
:1031D0004512C2F8141900EB4510D0F8001941F05F
:1031E0000441C0F8001909E0C86808B1C3F8140B1D
:1031F000D3F8000B40F00440C3F8000B002070BD72
:10320000FFFF07E010B5036C134CA34203D9D0F8BD
:10321000003B002B1EDB0023C0F8103BD0F8103B16
:1032200043F40023C0F8103BD0F8103B43F01803E0
:10323000C0F8103BD0F8103B43F0C043C0F8103B3F
:10324000012907D1C0F8142BD0F8001B41F08021D0
:10325000C0F8001B002010BD0A30544F4A780B788C
:10326000012A00EB43100BD0D0F8002B22F40012FF
:10327000C0F8002BC978032914D0022912D017E016
:10328000D0F8002922F40012C0F80029C9780329D7
:1032900001D002290CD1D0F8001941F08051C0F8BA
:1032A000001905E0D0F8001B41F08051C0F8001B68
:1032B000002070470A784B78D1B200EB4110012B07
:1032C00012D0D0F8001B002906DB2AB1D0F8001B71
:1032D00021F08041C0F8001BD0F8001B41F4001120
:1032E000C0F8001B00207047D0F80019002906DB49
:1032F0002AB1D0F8001921F08041C0F80019D0F8A7
:10330000001941F40011C0F80019EBE7F8B50C788A
:103310004F78774DE3B26FF0604600EB4313012F17
:1033200026D0D3F8104B6FF31204C3F8104BD3F828
:10333000104B2C40C3F8104B4C69002C74D08D6896
:103340002C44641EB4FBF5F4D3F8105BA4B206EA77
:10335000C4463543C3F8105BD3F8105B8E686643F0
:10336000C6F312042543C3F8105B012A71D0A6E00E
:103370004F691FB3D3F810796FF31207C3F81079B0
:10338000D3F810792F40C3F810794F698D682F4416
:103390007F1EB7FBF5F506EAC545D3F8106935433E
:1033A000C3F81059D3F810594E69C6F312063543C5
:1033B000C3F81059CD78012D10D01BE0D3F8106957
:1033C0002E40C3F81069D3F8105945F40025C3F80E
:1033D0001059D3F810596FF3120509E0D3F81059BA
:1033E00025F0C045C3F81059D3F8105945F00055E1
:1033F000C3F81059012A18D000EB4413D3F8004940
:1034000044F00444C3F80049CC78012C2FD04A6919
:1034100062B3D0F83428097801F00F0301219940F4
:103420000A43C0F8342860E036E00A691AB100EBBC
:103430004413C3F81429C97801290FD1D0F808180A
:10344000C90500EB4411D1F8002903D442F0005221
:1034500002E030E042F08052C1F8002900EB441055
:10346000D0F8001941F00441C0F800193DE0D0F84F
:103470000848E405D3F8004902D444F0005401E0C0
:1034800044F08054C3F8004900928A8A93B20A78C3
:10349000C96800F06FF928E0D3F8104B8D68C5F3C8
:1034A00012052C43C3F8104BD3F8104B44F40024FE
:1034B000C3F8104B59E7CA680AB1C3F8142BC9788E
:1034C00001290CD1D0F80808C005D3F8000B02D4AC
:1034D00040F0005001E040F08050C3F8000BD3F8FA
:1034E000000B40F00440C3F8000B0020F8BD0000C2
:1034F000FFFF07E0816841F0010181600020704713
:1035000008B500210091102101610649009A521C62
:1035100000928A4201D9032008BD0269D206F5D47F
:10352000002008BD400D030008B5002200922022B3
:1035300042EA811101610649009A521C00928A42B6
:1035400001D9032008BD02699206F5D4002008BD08
:10355000400D0300D0F8080810F0060004D002283F
:1035600003D0062801D00F20704702207047406921
:1035700000F001007047D0F81818D0F81C08084077
:1035800080B27047D0F81818D0F81C080840000C1A
:10359000704710B5D0F81038D0F8342801F00F0477
:1035A00000EB4110E24002F00102D0F8080943EAC2
:1035B000C212104010BD00EB4111D1F8081BD0F829
:1035C000140808407047416980690840704730B569
:1035D00003460846940802F00301002203F58053D5
:1035E00003E01D6840F8045B521CA242F9D3002995
:1035F0000BD01C680022D50024FA05F3491E521C8A
:10360000090400F8013B090CF5D130BD70B5044642
:10361000C068002520F0C040E060012901D079B1E8
:1036200020E0E06840F00050E0600120FDF7ACF8D9
:1036300060696D1C10F0010F10D1322DF5D30DE033
:10364000E06840F08040E0600120FDF79DF860698F
:103650006D1C10F0010F01D0322DF5D3322D01D0A9
:10366000002070BD012070BDD0F8002822F4FE6259
:10367000C0F80028D0F800284FF4FE6303EA0111D7
:103680000A43C0F80028002070470000022A3ED1FB
:10369000264A274B0A449A4201D20F2138E0254A94
:1036A000254B0A449A4201D20E2131E0234A244B91
:1036B0000A449A4201D20D212AE0224A224B0A44AE
:1036C0009A4201D20C2123E0204A214B0A449A421B
:1036D00001D20B211CE01F4A1F4B0A449A4201D21F
:1036E0000A2115E01D4A1E4B0A449A420FD31D4A77
:1036F0001D4B0A449A4201D2082109E01B4A114499
:103700001B4A914201D2072102E0062100E0092173
:10371000C26822F47052C260C2684FF4705303EA68
:1037200081210A43C260002070470000405327FFF8
:1037300000350C00401E1BFF40420F0000DC0BFF59
:10374000804F1200808CF9FE20D6130060B6E5FE93
:1037500060E3160000D3CEFE40771B00C05BB3FED3
:10376000C091210000CA91FE20753800E05459FE36
:10377000E09C410010B5029C74B9DB1C9C0800EB76
:103780000230002300F5805004E000BF51F8042B04
:1037900002605B1CA342F9D3002010BDFEE70907BD
:1037A000090E002804DB00F1E02080F800147047C7
:1037B00000F00F0000F1E02080F8141D70470000B9
:1037C00008B5FDF7F9F8FEF7D5F9FEF7D5F8FEF7DD
:1037D000E9F800240A254FF47A7600BF8DF80040FE
:1037E0008DF801508DF802408DF80340042269469F
:1037F0000548FEF73BFE04216846FCF7A7FF30466C
:10380000FCF7C2FFEAE70000480300204FF04070D9
:10381000E1EE100A70470000000000000000010205
:1038200003040607080900004838000800000020CB
:1038300048030000C4010008083A000848030020BB
:10384000383D0000280200081006B1210008E104FC
:1038500012ED08100615220008490412911412BD39
:1038600010001C170403090412010002EF020140BA
:103870008304405700020102030100001A03000103
:1038800010060D070008070412030812310412493C
:1038900008100A1D200008B91F000865082124121D
:1038A000ED0C125110438D1F10A1405211248305BD
:1038B000201C100509026C007820078032080B00DC
:1038C000017C5004090400091017210001000122A5
:1038D0004A0007058303040005080B0102020201E8
:1038E00021111721091008052400100105242510B5
:1038F00017042402020524060102070582030800BA
:103900001009040200020A5E10040705010A1142B0
:10391000228107130A060C1004000040E7115B60C7
:1039200004000010993324F407800B29240008D3E5
:103930002300089D24A00311C723C81128117D135B
:10394000081D3012F930400A09022200010100E08E
:1039500032BC1173B004092111BC21E8011D2402FD
:103960002107242148615A1590A1D0102105010991
:1039700002A1010901A1000509190129031500256A
:1039800001950375018102950175058101202017BC
:1039900030093109381581257F750895038106C0E6
:1039A000093C05FF090129C00E75019502B1227578
:1039B000069501B101C05818040902431B4300C019
:1039C000DC0513777700017706120177013844226E
:1039D0004007228107200400090744023B044458A1
:1039E0000B4D1D0008A51C00084D1EAC110C121932
:1039F00010C77B1CE412352812292C12410800053F
:083A0000001D1D00080000007C
:040000050800018965
:00000001FF
