:020000040800F2
:1000000070400020A101000803190008F71600083D
:10001000011900082F030008F13E0008000000004D
:10002000000000000000000000000000811A00082D
:1000300079030008000000007F1A00088D1A0008EC
:10004000BB010008BB010008BB010008BB010008A0
:10005000BB010008BB010008BB010008BB01000890
:10006000BB010008BB010008BB010008BB01000880
:10007000BB010008BB010008BB010008BB01000870
:10008000BB010008BB010008BB010008BB01000860
:10009000BB010008BB010008BB010008BB01000850
:1000A000BB010008BB010008BB010008BB01000840
:1000B000BB010008BB010008BB010008BB01000830
:1000C000BB010008BB010008BB010008BB01000820
:1000D000BB010008BB010008BB010008BB01000810
:1000E000BB010008BB010008BB010008BB01000800
:1000F000BB010008BB010008BB010008BB010008F0
:10010000BB010008BB010008BB010008BB010008DF
:10011000BB010008BB010008BB010008BB010008CF
:10012000BB010008BB010008BB010008BB010008BF
:10013000BB010008BB010008BB010008BB010008AF
:10014000BB010008BB010008BB010008051900083D
:10015000BB010008BB010008BB010008BB0100088F
:10016000BB010008BB010008BB010008BB0100087F
:10017000BB010008BB010008BB0100080000000033
:10018000BB010008BB010008DFF810D000F08EF8BA
:100190000048004715440008AFF30080704000207D
:1001A0000648804706480047FEE7FEE7FEE7FEE711
:1001B000FEE7FEE7FEE7FEE7FEE7FEE7251B000899
:1001C000890100082DE9F05F0546002092469B4614
:1001D00088460646814640241BE02846414647465D
:1001E000224600F053F853465A46C01A914110D3A4
:1001F00011461846224600F03AF82D1A67EB01081E
:100200004F4622460120002100F031F817EB00098B
:100210004E41201EA4F10104DFDC484631462A4647
:100220004346BDE8F09F40EA01039B0703D009E085
:1002300008C9121F08C0042AFAD203E011F8013BD2
:1002400000F8013B521EF9D27047D2B201E000F82B
:10025000012B491EFBD270470022F6E710B513466A
:100260000A4604461946FFF7F0FF204610BD202A33
:1002700004DB203A00FA02F1002070479140C2F1FD
:10028000200320FA03F3194390407047202A04DB2F
:10029000203A21FA02F00021704721FA02F3D040FF
:1002A000C2F120029140084319467047064C074DA1
:1002B00006E0E06840F0010394E807009847103436
:1002C000AC42F6D3FFF764FFDC440008FC440008AE
:1002D00070B58D1810F8014B14F0030201D110F81D
:1002E000012B231106D110F8013B03E010F8016B3C
:1002F00001F8016B521EF9D1ABB110F8012B04F0DB
:100300000C048A1A0C2C03D0A2EB84129B1C08E06C
:1003100010F8014BA2EB0422F8E712F8014B01F8A8
:10032000014B5B1EF9D5A942D4D3002070BDFEE776
:10033000002070470020704710B50022044905488E
:1003400001F0C2FD0449034801F0B5FD002010BDD5
:10035000540B0020981300205403002010B50146D0
:10036000034801F0A8FD024801F08BFD002010BDFC
:100370009813002000207047704772B6FEE7000017
:1003800070B5044600F006F90546601C02D004482A
:100390000078044400F0FEF8401BA042FAD370BD80
:1003A0001C0100202DE9F84FDFF8BCA10022012537
:1003B0000AF1040B03264FF00F090BF1040E00BFE6
:1003C0000B6805FA02F42340A34270D10F7907F0BD
:1003D0000307012F01D0022F16D187684FEA420888
:1003E00006FA08FC27EA0C07D1F80CC00CFA08FC46
:1003F0004CEA070CC0F808C04768A7430C79C4F35F
:10040000001494403C4344600C79E443A4070AD0B0
:10041000C4684FEA420C06FA0CF7BC438F6807FA2F
:100420000CF72743C7600C7904F00304022C12D1A7
:10043000D40800EB840CDCF820405707FF0E09FAC3
:1004400007F824EA0804D1F8108008FA07F848EA07
:100450000408CCF8208004684FEA420C06FA0CF736
:10046000BC430F7907F0030707FA0CF7274307602F
:100470004C6814F4403F70D03C4C276847F48047E8
:100480002760246822F0030704F480440094384C69
:1004900007EB040CDCF8084897074FEA177809FACD
:1004A00008F7BC43334FB84202D1002724E054E0A0
:1004B000314FB84201D101271EE0304FB84201D17F
:1004C000022719E02E4FB84201D1032714E02D4F27
:1004D000B84201D104270FE02B4FB84201D10527C4
:1004E0000AE02A4FB84201D1062705E0284FB8425A
:1004F00001D1072700E0082707FA08F72743CCF8BF
:100500000878DAF800405746D1F804C09C435FEA07
:10051000CC3C00D51C433C60DBF800405F46D1F882
:1005200004C09C435FEA8C3C00D51C433C60DEF871
:1005300000407746D1F804C09C435FEACC2C00D53C
:100540001C433C60084F0C373C68D1F804C09C4306
:100550005FEA8C2C00D51C433C60521C102AFFF42F
:100560002FAFBDE8F88F0000003C01404438024046
:100570000030014000000240000402400008024038
:10058000000C02400010024000140240001802401B
:10059000001C024001488068704700001C010020D8
:1005A0000248816802781144816070471C01002074
:1005B0000B4810B5016841F400710160016841F415
:1005C00080610160016841F480710160032000F0E6
:1005D0006FF80F2000F006F800F024F8002010BD9E
:1005E000003C024070B50D4D04464FF47A712878F6
:1005F000B1FBF0F00A490968B1FBF0F000F0A6FF8A
:1006000048B9102C07D200222146501E00F030F8C5
:1006100000206C6070BD012070BD00001C01002036
:10062000280100200A4808B5016841F480410160B2
:10063000006800F4804000900548001F016841F008
:1006400080510160006800F08050009008BD0000FB
:1006500044380240002809DB00F01F0201219140CC
:100660004009800000F1E020C0F800117047000050
:10067000F0B40E4B1B680C46C3F30223C3F107050D
:10068000042D00D90425191D072901D2002300E0FB
:10069000DB1E012606FA05F1491E214099409E40C5
:1006A000761E16403143F0BC03F034BC0CED00E084
:1006B000064900F0070208684FF6FF03184040EAB9
:1006C0000220034A10430860704700000CED00E070
:1006D0000000FA0570470068416200207047F0B5DD
:1006E0000368586A39B19C6A4FF4827600EB14446F
:1006F00000204D1E0AE040EA024098620FE006EB3F
:100700008007DF59401C04EB1744C0B2A842F6D35F
:1007100044EA02404FF4807202EB810158500020FD
:10072000F0BDD0F8040402F035BBC1EBC10200EB10
:100730008202D0F80404926C02F0A2BAC1EBC102AA
:1007400000EB8202D0F80404D2F8082202F0ECBADE
:10075000D0F8040402F020BB70B504460B0601F08B
:100760000F00C0EBC00104EB81014FF001024FF01C
:10077000000503D581F83D203C3103E081F8FD51AF
:1007800001F5FE71087094F8BC03012808D084F8C4
:10079000BC23206802F012FF84F8BC53002070BD17
:1007A000022070BD70B5044601F00F0062689042EF
:1007B00001D9012070BD0B0601F00F01C1EBC10191
:1007C00004EB81014FF001024FF0000503D581F8E1
:1007D0003D203C3103E081F8FD5101F5FE718D7043
:1007E000087094F8BC03012808D084F8BC23206862
:1007F00003F0DEF884F8BC53002070BD022070BD09
:1008000001F00F01C1EBC10100EB8100D0F814022F
:1008100070472DE9F04104460F0601F00F00C0EBD0
:10082000C00104EB81014FF001064FF0000503D534
:1008300081F83D603C3103E081F8FD5101F5FE7126
:1008400008708A60CB704A7802B1C880022B00D150
:100850000D7194F8BC03012809D084F8BC632068AA
:1008600002F004FE284684F8BC53BDE8F081022063
:10087000FBE770B50C4601F00F05C5EBC50100EBB9
:100880008101C1F81032C1F808220023C1F81432E6
:1008900081F8FD3181F8FC51036901F5FE71012BEE
:1008A00000D10A612207027C006803D003F0D8F867
:1008B000002070BD02F0C4FFFAE770B504460D4693
:1008C00001F00F006168884201D9012070BD29063E
:1008D0004FF000064FF0010207D5C0EBC00104EB5A
:1008E000810181F83D203C3107E0C5EBC50104EBF7
:1008F000810181F8FD6101F5FE718A70087094F83C
:10090000BC03012807D084F8BC23206803F07CF8DE
:10091000280702D007E0022070BD217C04F5717227
:10092000206803F019F884F8BC63002070BD70B52E
:100930000C4601F00F05C5EBC50100EB81010B650D
:100940008A6400234B65012381F83D3001F83C5F48
:100950000369012B00D10A612207027C006803D0E1
:1009600003F07EF8002070BD02F06AFFFAE7000095
:100970002DE9FC5F05680446284603F0A2F900282B
:100980007ED1206803F0C9F9002879D0206803F0EF
:10099000C4F9800704D52168486900F00200486165
:1009A000206803F0BAF9C10604F57170009034D5DF
:1009B0002068816921F0100181612F6A07F00F0022
:1009C000C0EBC00004EB8006C7F3434006F5FE769B
:1009D000022802D0062811D01AE047F6F07007422C
:1009E00016D0C7F30A1217462846F16803F099F9A2
:1009F000F0683844F060B069384408E008222846BE
:100A0000009903F08EF9B069C7F30A110844B06188
:100A10002068816941F010018161206803F07DF94F
:100A200000034FF0010A4FF0080B5BD50026206849
:100A300003F052F90746DFF8689351E0F8074DD00C
:100A4000F1B2206803F061F98046C00707D005EBDA
:100A50004611C1F808AB3146204600F059FF5FEA65
:100A6000087022D505EB4611C1F808BB2068016C5F
:100A700000EB46100191D0F8082B494507D900E05A
:100A80008BE1110403D54FF40041C0F8081B204648
:100A900000F076FA0198484507D92069012804D169
:100AA00020680121009A02F057FF5FEAC86004D570
:100AB00005EB46111020C1F8080B5FEA886004D5E9
:100AC00005EB46112020C1F8080B5FEA884005D5E8
:100AD00005EB46104FF40051C0F8081B7F08761C48
:100AE000002FABD1206803F018F940034FF0000944
:100AF0005CD5206803F0E9F80746002654E0F807C3
:100B000050D0F1B2206803F0EEF88046C00723D041
:100B100006F00F020AFA02F0D5F834288243C5F82D
:100B2000342805EB4610C0F808A9206901280FD128
:100B3000C6EBC60004EB8000D0E9112111448164AA
:100B400036B9206D20B920680121009A02F004FF17
:100B5000F1B22046FFF7E9FD5FEA087003D505EB27
:100B60004611C1F808B95FEAC86004D505EB461123
:100B70001020C1F808095FEA486004D505EB46116A
:100B80004020C1F808095FEA887004D505EB4611DA
:100B90000220C1F808095FEA086003D53146204603
:100BA00000F01CFF7F08761C002FA8D1206803F0FE
:100BB000B4F8002811DAD5F8040820F00100C5F8CF
:100BC000040894F8F403012829D0204600F0BCF969
:100BD0002068416901F000414161206803F09DF8FF
:100BE00000050BD5D5F80808C00702D0204600F054
:100BF000EFF92068416901F400614161206803F068
:100C00008CF8C00468D5D5F8040820F00100C5F8B8
:100C100004081021206803F031F8002127E084F84F
:100C2000F49300212046FFF755FDD1E705EB411075
:100C30004FF67F32C0F80829D0F8003923F40013AA
:100C4000C0F80039D0F8003943F00063C0F800392B
:100C5000C0F8082BD0F8002B22F40012C0F8002BAB
:100C6000D0F8002B42F00062C0F8002B491C6068ED
:100C70008842DBD8D5F81C0840F00110C5F81C08E4
:100C8000206B60B1D5F8840840F00B00C5F88408EB
:100C9000D5F8440840F00B00C5F844080CE0D5F83E
:100CA000141842F22B000143C5F81418D5F81008A7
:100CB00040F00B00C5F81008D5F8000820F4FE60DD
:100CC000C5F80008217C2068009A02F045FE2068E3
:100CD000416901F480514161206803F01EF88004ED
:100CE00015D5206802F002FC206802F0DDFFE0600C
:100CF00000F020FA0146227B206803F071F82046BC
:100D000000F00CF92068416901F40051416120684C
:100D100003F003F8000707D5204600F019F9206812
:100D2000416901F008014161206802F0F6FFC0024C
:100D300008D50021204600F035F82068416901F40B
:100D400080114161206802F0E8FF800208D500218F
:100D5000204600F02BF82068416901F40011416140
:100D6000206802F0DAFF400007D52046FFF7D9FCE3
:100D70002068416901F080414161206802F0CDFFA7
:100D800040070AD520684568680702D52046FFF766
:100D9000DFFC2068416829434160BDE8FC9F0000FA
:100DA0000A30544FD0F8040402F050B8D0F80404CC
:100DB00002F05CB82DE9F0418AB0040005D094F847
:100DC000BD032668002520B108E001200AB0BDE877
:100DD000F08184F8BC53204600F05EF8032084F8CC
:100DE000BD03F06BC00500D42561206802F022FD30
:100DF00004F11001282288466846FFF714FA94E8A7
:100E00000F0002F081FB0226C8BB0021206802F01F
:100E1000A7FF002001270EE0C0EBC00104EB810119
:100E200081F83D7001F83C0FC880CD708D60CD60B9
:100E3000401CC0B24D6161688142EDD8002011E0D4
:100E4000C0EBC00104EB810181F8FD5181F8FC0188
:100E500081F8FF51C1F80452C1F80852401CC0B2D9
:100E6000C1F8105261688142EAD82822414668469A
:100E7000FFF7D9F994E80F0002F022FC10B184F8D2
:100E8000BD63A2E784F8385084F8BD73206802F08F
:100E900009FC00209AE7000010B586B00446142132
:100EA0006846FFF7D9F92068B0F1A04F2FD1194853
:100EB0000021026842F001020260006800F00100B7
:100EC00005904FF4C05000900220CDE901010320AD
:100ED00003900A20049069460F48FFF763FA0D4813
:100EE000001D016841F0800101600A48143001686A
:100EF00041F4804101600068002200F480400590C8
:100F000011464320FFF7B4FB4320FFF7A3FB06B0D5
:100F100010BD0000303802400000024070B50446A9
:100F2000C068012570B1022801D0FFF726FA2946D2
:100F3000D4F8040402F006F8D4F80404BDE87040C4
:100F400001F0B9BF0025F2E7D0F8040401F0E0BFDA
:100F5000D0F8040401F0E6BF10B5044690F8BC03D5
:100F600001280BD0012084F8BC0384F838102068D5
:100F700002F024FF002084F8BC0310BD022010BD45
:100F8000D0F8042400F57171104601F0E7BF10B5E8
:100F90000446006894F8BC13012906D0012184F8A6
:100FA000BC13A16A012902D008E0022010BDA1698A
:100FB000012903D0816B41F480318163206802F004
:100FC00043FE206802F060FB002084F8BC0310BDE3
:100FD00010B50446D0F8040402F002F82068D0F8F6
:100FE000001E41F00101C0F8001E206A002804D054
:100FF0000248016841F00601016010BD10ED00E0FB
:101000002DE9F0470E46050065D0DFF81481D8F8C9
:101010000000F7B200F00700B04207D288F8007075
:10102000D8F8000000F00700B04254D128683D4CC9
:10103000810712D5400703D5206840F4E0502060B6
:101040002878000703D5206840F4604020602068BD
:10105000A96820F0F000084320602878C0072DD050
:10106000304968680839012812D0022813D00328B3
:1010700011D00968890700292DDA216821F00301C0
:1010800001432160FFF786FA814641F2883A0EE07B
:1010900009688903EFE709688901ECE7FFF77AFA45
:1010A000A0EB0901514502D90320BDE8F087206873
:1010B000696800F00C00B0EB810FEFD1D8F8001098
:1010C000404601F00701B14207D90770006800F0FF
:1010D0000700B04201D00120E7E72878400705D596
:1010E0002068E96820F4E050084320602878000771
:1010F00006D52068296920F4604040EAC1002060DC
:1011000000F03EF82168084AC1F30311515CC84061
:101110000649086006480068FFF764FA0020C4E743
:10112000003C024008380240C44400082801002066
:1011300020010020014800687047000028010020BD
:101140000448054900680968044AC1F38221515CDA
:10115000C84070472801002008380240D4440008E5
:101160000448054900680968044AC1F34231515CEA
:10117000C84070472801002008380240D4440008C5
:10118000154810B5006810F00C02144813D0411037
:10119000042A0FD0082A0ED10F4C241F226823687E
:1011A00002F03F025B0207D52068C0F38810A0FB65
:1011B000010106E0084610BD2168C1F38811A1FBBA
:1011C00000010023FEF7FEFF2168C1F30141491C25
:1011D0004900B0FBF1F010BD083802400024F400D3
:1011E0002DE9F84F04006ED02078DFF84C93C0074B
:1011F000A9F104054AD009F104000168C1F3810195
:10120000012908D00068C0F3810002280AD1D9F86A
:101210000000400206D52868800337D560680028A2
:10122000E1D033E06068B0F5803F10D0B0F5A02F7A
:10123000286810D020F480302860286820F48020AE
:1012400028606068A8B1FFF7A5F906460DE0286898
:1012500040F48030F4E740F480202860F7E700BFD6
:10126000FFF798F9801B642873D828688003F7D5A6
:101270000CE0FFF78FF9064605E000BFFFF78AF99B
:10128000801B6428F0D828688003F7D42078DFF822
:10129000AC8280074FF0000A3ED5A748001D0168C8
:1012A00011F00C0F08D00068C0F3810002280BD1A8
:1012B000D9F80000400207D42868800716D5E068F6
:1012C000012800D112E033E1E068B8B10120C8F88C
:1012D0000000FFF75FF9064605E000BFFFF75AF987
:1012E000801B0228C0D828688007F7D528682169A4
:1012F00020F0F80040EAC10028600DE0C8F800A026
:10130000FFF748F9064604E0FFF744F9801B02287E
:101310001FD828688007F7D42078000722D5864F89
:1013200087486169703771B101210160FFF732F9B7
:10133000064604E0FFF72EF9801B022809D838681A
:101340008007F7D50EE0C0F800A0FFF723F90646A6
:1013500005E082E0FFF71EF9801B02287DD838687F
:101360008007F7D42078400768D5DFF8CCB1002794
:101370000BF13C0BDBF80000C0000BD4DBF80010D5
:1013800041F08051CBF80010DBF80000012700F09D
:10139000805000906B4E3068C00510D4306840F427
:1013A00080703060FFF7F6F8009005E0FFF7F2F884
:1013B0000099401A022850D83068C005F6D55E4E14
:1013C000A0686C3601280FD00528306810D020F0B6
:1013D00001003060306820F004003060A068B8B1CF
:1013E000FFF7D8F800900FE0306840F00100F4E714
:1013F00040F004003060F7E7FFF7CCF80099411A9D
:1014000041F28830814266D830688007F4D50EE01A
:10141000FFF7C0F8009007E0FFF7BCF80099411A09
:1014200041F28830814256D830688007F4D42FB119
:10143000DBF8001021F08051CBF80010A069C8B390
:101440003D49091D0968C1F3810102294AD00228DA
:10145000504607D0C8F8600000E03CE0FFF79AF87B
:1014600004463BE04746C8F86000FFF793F806469D
:1014700005E000BFFFF78EF8801B02282BD82868F4
:101480008001F7D4D4E907010843A16A2E4A49082C
:1014900002EB0141626A41EA8211084394F82C1080
:1014A00040EA0161C9F8001001203866FFF772F8C0
:1014B000044606E03EE000BFFFF76CF8001B022880
:1014C00009D828688001F7D534E000BFFFF762F83B
:1014D000001B022802D90320BDE8F88F286880018C
:1014E000F4D427E00128F7D0D9F80000E26900F42D
:1014F000800191421CD1226A00F03F01914217D134
:1015000047F6C071626A0140B1EB821F10D1A26A36
:101510004FF0FF3300F4403103EB5202B1EB024FC6
:1015200006D194F82C1000F07060B0EB016F01D080
:101530000120D1E70020CFE70438024000004742F5
:10154000800E4742007000400000FFFF10B5401EB3
:10155000B0F1807F01D3012010BD4FF0E024606125
:101560000F21601702F0D6FC0020A0610720206147
:10157000002010BD70B5040004D094F83D00002593
:1015800010B106E0012070BD84F83C50204600F008
:1015900023F8242084F83D002068C16821F400511C
:1015A000C160204600F0C6FA2068016921F490412C
:1015B00001612068416921F02A0141612068C16808
:1015C00041F40051C1602564202084F83D0084F876
:1015D0003E00002070BD000010B586B00446142106
:1015E0006846FEF739FE14492068884221D1134825
:1015F0000021026842F010020260006800F0100052
:1016000005900E481438026842F00102026000683A
:1016100000F0010005904FF4C06000900220CDE979
:101620000101032003900720049069460448FEF757
:10163000B9FE06B010BD0000001001404438024061
:10164000000002402DE9F843044690F83D001F4693
:1016500016460D4620284CD1C5B1BEB194F83C00C9
:10166000012846D0012084F83C004FF00008C4F85F
:101670004080212084F83D00FEF78CFFA68481463F
:10168000E684A068B0F5805F03D004E00120BDE8E7
:10169000F883206928B12E465FF0000584F83C806D
:1016A0000EE00026FAE78021204600F0C9FAA0B932
:1016B000AEB116F8010B21684860E08C401EE08452
:1016C000E08C4B464FF0000200970028EBD14FF022
:1016D0004001204600F0B4FA30B10320D7E735F8D6
:1016E000020BC0F30800E6E7202084F83D0000204C
:1016F000CDE70220CBE7FEE7F0B500230A24302532
:1017000037261F4611E000BFB4EB107F02D905EB6E
:10171000107C01E006EB107C01F813C001EB430CD8
:1017200000015B1C8CF80170DBB29342ECD3F0BD7E
:10173000094808B5016841F080010160016801F0C5
:1017400080010091016841F001010160006800F032
:101750000100009008BD0000303802400C4810B570
:101760000A4901604FF4E1314160002181600C229F
:10177000C160C0E904128161C161FFF7FBFE00286E
:1017800003D0BDE81040FEF7F8BD10BD00100140C9
:1017900054130020F8B52F4D6846E96A884704467F
:1017A000BDF800102CA002F0A5FB36A002F0A2FBB1
:1017B0004FF47A763346BDF8002021463248FFF7D1
:1017C00041FF32A002F096FB2EA002F093FB696B62
:1017D000684688470446BDF800102EA002F08AFB38
:1017E00028A002F087FB3346BDF80020214626489A
:1017F000FFF728FF25A002F07DFB22A002F07AFB74
:1018000031A002F077FB33A002F074FB1DA002F0C0
:1018100071FB33A002F06EFB34A002F06BFB19A049
:1018200002F068FB00223449344801F0E3F908B1C2
:10183000FEF7A3FD0749314801F0FAFB08B1FEF7B6
:101840009CFD2E4801F08CFC002801D0FEF795FD90
:10185000F8BD0000140000204765744653436F6EC6
:1018600066696744657363726970746F722C6C6526
:101870006E6774683D25642E2E2E30303030313046
:10188000310000000D0A00005413002039393939A5
:101890000D0A00004765744465766963655175619A
:1018A0006C696669657244657363726970746F729E
:1018B0002C6C656E6774683D25642C2C2C303030A0
:1018C00030313031000000005B4552524F525D3ADA
:1018D0002000000054657374206C6F6700000000E6
:1018E0005B44454255475D3A2000000054657374DF
:1018F000206C6F670D0A0000CC00002098130020B8
:10190000FEE7FEE70148FFF733B800006816002045
:101910002DE9F04103680D4604461E6C03EB4511AA
:10192000D1F8080BD4F810E04FF400474FF0200C2A
:1019300004F57172BEF1010F09D0DFF898E0764529
:1019400039D1020432D500BFC1F8087B3FE0224BF9
:101950005FEA007E04D59E4239D90004F4D436E013
:101960005FEA806E02D5C1F808CB30E010F0280F96
:101970002DD19E4201D90004E6D4C5EBC50004EB8D
:101980008000D1F8101BD0F80432C1F31201591AAB
:10199000C0F81412D0F808121944C0F8081295B90A
:1019A000D4F8100278B9012120680AE080060AD52F
:1019B000C1F808CB07E035B9D4F8100218B90021F6
:1019C000184601F0C9FFE9B22046FEF7B7FE002035
:1019D000BDE8F0810A31544F0A30544F2DE9F84FD9
:1019E0000E46C1EBC60100EB810481460568D4E9CF
:1019F00014103C34884202D90120BDE8F88F081A3F
:101A0000A168814200D20846C01C870805EB461831
:101A10001BE000BFA0EB010AA068504500D282463F
:101A20000AF10300870899F8100000901FFA8AF362
:101A3000F2B22846E16802F047FAE16801EB0A00D9
:101A4000E060A16901EB0A00A061D8F8180980B232
:101A5000B84205D3D4E90501814201D20028D9D189
:101A6000D4E90501884208D806F00F01012088401A
:101A7000D5F834188143C5F834180020BDE7704705
:101A800070470178407841EA00207047FEF788BD32
:101A900030B593B030216846FEF7DEFB14210CA868
:101AA000FEF7DAFB1D480025016841F08051016016
:101AB000006800F0805011901948016841F480419D
:101AC00001600068022400F4804011900120009021
:101AD000000401908001CDE9064004200890A82070
:101AE000CDE9090407200B906846FFF779FB08B1A0
:101AF00072B6FEE70CA90F2081E831004FF4A05028
:101B00000F904FF48050109005210CA8FFF778FA41
:101B1000002801D072B6FEE713B030BD4038024055
:101B2000007000400248016841F470010160704794
:101B300088ED00E070B5044600680169E26821F4B0
:101B40004051114301612169A068E269084361695C
:101B5000114308432168CA6849F20C639A4302435F
:101B6000CA6020684169A26921F440711143416152
:101B700031492068884202D03049884202D1FFF7BB
:101B8000EFFA01E0FFF7DCFAE2690023192164258E
:101B90003226B2F5004F626828D0A0FB0101930FF6
:101BA0009200FEF70FFB0146B0FBF5F06FF0180254
:101BB000504301EB800006EB0010B0FBF5F000F0A5
:101BC000F002B1FBF5F002EB0012B1FBF5F06FF0A3
:101BD0001803584301EB800006EB0010B0FBF5F052
:101BE00000F00F0021681044886070BDA0FB010167
:101BF00092185B41FEF7E6FA0146B0FBF5F00201F0
:101C0000B1FBF5F06FF01803584301EB800006EBD1
:101C1000C000B0FBF5F000F0F80002EB4002B1FBB1
:101C2000F5F0584301EB800006EBC000B0FBF5F087
:101C300000F00700D6E7000000100140001401404A
:101C40002DE9F041984617460E460446069D27E0CA
:101C5000681C25D02DB1FEF79DFCA0EB0800A84222
:101C60001ED920680C3050E8001F21F4D07140E8E4
:101C70000012002AF5D12068143050E8001F21F02E
:101C8000010140E80012002AF5D1202084F83D002F
:101C900084F83E00002084F83C000320BDE8F08179
:101CA0002068006836EA000004D00020B842CFD097
:101CB0000020F3E70120F9E72DE9F0410C46D0F8C8
:101CC000C422D0F8BC12F1B104EB840300EB83050D
:101CD0000026AB694BB1C4EBC40702EB8702526C20
:101CE000B3FBF2F702FB17327AB1C1F89460D0F877
:101CF000C002036923B1D1F8880022469031984789
:101D00000020BDE8F0810320FBE700231A462146AE
:101D1000AE6101F06EF9F3E770B5D0F8BC4205464C
:101D20006CB101F045F8C4F88C00D5F8C012D4F8B5
:101D30008400CA6804F18C019047002070BD032024
:101D400070BD70B50446812100F091FF0025258704
:101D50000121204600F08BFFA4F878518221204613
:101D600000F085FFA4F84C50A4F84E50D4F8BC0203
:101D700048B1D4F8C00204F52F7440688047206849
:101D800001F043FB2560002070BD10B5D0F8BC42C7
:101D900084B1D0F8C01259B194F88000FF2807D060
:101DA0008B6894F8812021469847FF2084F88000B2
:101DB000002010BD032010BD0A210180004870479B
:101DC0002C01002043210180004870477C01002045
:101DD00043210180004870473801002043210180E1
:101DE00000487047C00100202DE9F04104469C20C6
:101DF00001F00EFB05004FF0000832D0C4F8BC52D1
:101E0000207C1027012680B3402302228121204616
:101E100001F03CF82687402302220121204601F0F0
:101E200035F8A4F87861A4F84E70082303228221C3
:101E3000204601F02BF8A4F84C60D4F8C0020068EA
:101E40008047C5F89480C5F89880207CD5F8842018
:101E5000A8B140230121204601F024F80020BDE86C
:101E6000F0810220C4F8BC82F9E7FFE78023022258
:101E70008121204601F00AF826878023CCE78023C1
:101E8000E8E710B5D0F8BC1251B1027C002AD1F8B5
:101E9000842007D04023012101F004F8002010BD68
:101EA000032010BD8023F6E719B1C0F8C01200204E
:101EB000704703207047D0F8BC0218B1C0F88410F6
:101EC0000020704703207047D0F8BC0220B140F8D2
:101ED000881F826000207047032070472DE9FC4175
:101EE0000646D0F8BC7200200C468DF80000ADF814
:101EF0000400054637B1207810F0600128D0202971
:101F000044D102E00320BDE8FC81E288C2B10006B2
:101F100060780AD5D6F8C0128B6839469847E288AF
:101F2000072A00D90722394628E087F88000A079DF
:101F300087F88100E2883946304600F051FB2AE0FC
:101F4000D6F8C012607800228B682146984722E0BC
:101F5000607830B101281ED00A2809D00B2815D18D
:101F600010E096F89C02032810D1022201A905E096
:101F700096F89C02032809D101226946304600F0F8
:101F800049FB08E096F89C02032804D0214630461D
:101F900000F0FAFA03252846B5E710B5D0F8B822C4
:101FA0000AB152689047002010BD000070B50C4681
:101FB0000546002041F0800181290BD083290ED1F4
:101FC000284600F0C7FA0648214642692846BDE87F
:101FD00070401047284600F0B1FA0248F4E770BD9F
:101FE000400200200402002070B5054600200C4687
:101FF000012901D0822C09D1284600F09FFA04481B
:10200000214682692846BDE87040104770BD000037
:102010000402002070B50D46064600F08FFA0F4806
:1020200029464268304690470446304600F092FA0E
:102030000B482946426830469047204410F0FF0480
:1020400004D008A001F056FF09A000E010A001F0A4
:1020500051FF17A001F04EFF204670BD0402002082
:10206000400200205B4552524F525D3A2000000072
:10207000555342445F436F6D706F736974655F447D
:1020800065496E6974206661696C656400000000D2
:10209000555342445F436F6D706F736974655F445D
:1020A00065496E69742073756363657373210000FD
:1020B0000D0A000010B5044608A001F01BFF0AA09D
:1020C00001F018FF13A001F015FF204600F036FACA
:1020D000114801692046BDE8104008475B4445426D
:1020E00055475D3A20000000555342445F436F6DF1
:1020F000706F736974655F4550305F5278526561E7
:10210000647920686173206265656E2063616C6C20
:10211000656400000D0A00000402002010B50446AA
:1021200006A001F0E7FE08A001F0E4FE15A001F012
:10213000E1FE0A202080144810BD00005B444542A7
:1021400055475D3A20000000555342445F436F6D90
:10215000706F736974655F4765744465766963651C
:102160005175616C69666965724465736372697003
:10217000746F7220686173206265656E2063616CA4
:102180006C6564000D0A0000C000002010B5044614
:1021900006A001F0AFFE08A001F0ACFE11A001F016
:1021A000A9FE6C202080104810BD00005B44454211
:1021B00055475D3A20000000555342445F436F6D20
:1021C000706F736974655F4765744653436667440F
:1021D00065736320686173206265656E2063616C5E
:1021E0006C6564000D0A0000540000202DE9F041E8
:1021F0000F4604461D49FFF757FE1D483946026841
:10220000204690471B4DD4F8BC1210F0FF066960C1
:1022100004D019A001F06EFE1AA017E01FA001F073
:1022200069FE28A001F066FE0020C4F8C00226481E
:102230003946026820469047D4F8BC1210F0FF06D9
:1022400029600BD00CA001F055FE20A001F052FE39
:102250001CA001F04FFE3046BDE8F08121A001F046
:1022600049FE18A001F046FE0020F5E7000000201E
:10227000040200204C0000205B4552524F525D3A50
:1022800020000000555342445F4344432E496E6989
:1022900074206661696C6564000000005553424417
:1022A0005F4344432E496E6974207375636365739D
:1022B0007321204344435F48616E646C653A20306B
:1022C000782570000D0A000040020020555342445A
:1022D0005F4849442E496E6974206661696C656483
:1022E00000000000555342445F4849442E496E693E
:1022F00074207375636365737321204849445F4894
:10230000616E646C653A2030782570002DE9F041EB
:1023100007460C462FA001F0EDFD31A001F0EAFDCB
:1023200039A001F0E7FD2078384D00F00300384E69
:10233000012802D002282FD116E026A001F0DAFDF4
:1023400034A001F0D7FD30A001F0D4FDA18839B14F
:10235000012901D0022919D13BA001F0CBFD21E0D8
:1023600040A001F0C7FD28E01AA001F0C3FD44A081
:1023700001F0C0FD24A001F0BDFDA18801290ED00F
:1023800081290CD082290AD0832913D049A001F0D9
:10239000B1FD1DA001F0AEFD0020BDE8F08153A00D
:1023A00001F0A8FD18A001F0A5FD384600F0C6F820
:1023B000AA6809E057A001F09DFD13A001F09AFD65
:1023C000384600F0C7F8B26821463846BDE8F0410B
:1023D000104700005B44454255475D3A200000002D
:1023E000555342445F436F6D706F736974655F53FB
:1023F0006574757020686173206265656E20636125
:102400006C6C6564000000000D0A000004020020EE
:1024100040020020555342445F436F6D706F7369F3
:1024200074655F53657475703A205553425F524529
:10243000515F524543495049454E545F494E5445BA
:102440005246414345000000555342445F436F6D7F
:10245000706F736974655F53657475703A20434497
:1024600043000000555342445F436F6D706F7369C2
:1024700074655F53657475703A20484944000000E4
:10248000555342445F436F6D706F736974655F535A
:10249000657475703A205553425F5245515F5245FD
:1024A00043495049454E545F454E44504F494E5460
:1024B000000000005B5761726E696E675D3A2055DF
:1024C0005342445F436F6D706F736974655F53650A
:1024D0007475703A2064656661756C742C20774958
:1024E0006E6465783A20256400000000555342442C
:1024F0005F436F6D706F736974655F53657475705A
:102500003A204344432C2077496E6465783A20256D
:1025100064000000555342445F436F6D706F7369F0
:1025200074655F53657475703A204849442C207770
:10253000496E6465783A2025640000000349C0F8BC
:10254000C01203494968C0F8BC127047000000205F
:102550004C0000200021C0F8C01202490968C0F8F0
:10256000BC1270474C000020134610B50A460021EB
:1025700000F098FC002010BD134610B50A4600215B
:1025800000F037FD002010BD70B505460C460AA0CE
:1025900001F0B0FC227861780AA001F0ABFC0FA03A
:1025A00001F0A8FC8021284600F008FD2846BDE87F
:1025B0007040002100F002BD5B4552524F525D3A1F
:1025C00020000000555342445F43746C4572726FA3
:1025D000723A253032582025303258000D0A00005A
:1025E00010B50323C0F89432C0F858211346C0F840
:1025F0005C210A46002100F055FC002010BD10B5FA
:102600000521C0F8941200231A46194600F04AFC2E
:10261000002010BD10B50223C0F894328261134629
:10262000C2610A46002100F0E4FC002010BD10B594
:102630000421C0F8941200231A46194600F0D9FC70
:10264000002010BD10B50A46024903A000F0A0F911
:10265000004810BD701A002048494420436F6E6640
:102660006967000010B50C4606A001F043FC08A005
:1026700001F040FC0DA001F03DFC122020800C4830
:1026800010BD00005B44454255475D3A2000000004
:10269000555342445F46535F4465766963654465BC
:1026A0007363726970746F72000000000D0A00009D
:1026B000EC00002010B50A46024903A000F068F9BA
:1026C000004810BD701A002048494420496E7465C6
:1026D000726661636500000010B50C4606A001F04B
:1026E00009FC08A001F006FC0DA001F003FC042089
:1026F00020800C4810BD00005B44454255475D3AC0
:1027000020000000555342445F46535F4C616E67A2
:10271000494453747244657363726970746F7200D4
:102720000D0A0000E800002010B50C4607A001F0DB
:10273000E1FB09A001F0DEFB14A001F0DBFB224667
:10274000134914A000F024F9114810BD5B44454220
:1027500055475D3A20000000555342445F46535FA1
:102760004D616E75666163747572657253747244FF
:10277000657363726970746F72206861732062653B
:10278000656E2063616C6C65640000000D0A0000DA
:10279000701A002053544D6963726F656C656374E1
:1027A000726F6E696373000070B504460D4608A031
:1027B00001F0A0FB09A001F09DFB10A001F09AFB25
:1027C0002A460F490FA000F0E3F80D4870BD000045
:1027D0005B44454255475D3A200000005553424452
:1027E0005F46535F50726F647563745374724465CF
:1027F0007363726970746F72202564000D0A0000A3
:10280000701A002053544D33322048756D616E208C
:10281000696E7465726661636520616E64206364CD
:102820006300000010B51A2008800A480168001DE6
:102830000468001D0068081809D008220649FEF740
:102840005BFF0549042210312046FEF755FF024880
:10285000801E10BD107AFF1F02010020F8B504464B
:102860000020ADF800000D463BA001F043FB698855
:102870003CA001F03FFB45A001F03CFB6888010A49
:1028800008295FD2DFE801F05E0409175E5E3C456F
:10289000D4F8B412207C0A6819E0207C02260028B3
:1028A000D4F8B80205D0C16A684688470146467028
:1028B00039E0816AF8E7C0B2062843D2DFE800F0C9
:1028C000030A1014181CD4F8B402426805E06946E3
:1028D00090471CE0D4F8B402826892B3207CF6E7FB
:1028E000D4F8B402C268F8E7D4F8B4020269F4E795
:1028F000D4F8B4024269F0E7D4F8B4028269ECE794
:10290000207CF0B9D4F8B802416B6846884701468C
:1029100009E0207CA8B9D4F8B802016B6846884762
:10292000014607204870EA888AB1BDF8000040B12E
:10293000824200D90246ADF800202046FFF76AFE29
:10294000F8BDFFE729462046FFF71EFEF8E72046C0
:10295000FFF76DFEF4E700005B44454255475D3AE2
:1029600020000000555342445F476574446573631B
:10297000726970746F722C20287265712D3E7756C3
:10298000616C7565293A2025780000000D0A000069
:1029900070B5002300281ED00025044602E06D1CFF
:1029A000EDB2641C2678002EF9D1022404EB450414
:1029B00014801278CA545B1C0322CA5400245B1C86
:1029C00006E0CA545B1CDAB28C54521CD3B2401CD1
:1029D0000278002AF5D170BD01004FF0000004D04C
:1029E000012901D0022901D003207047012070473E
:1029F000D0F8BC02002101730846704770B5044648
:102A0000832100F034F90025A4F86050A4F8625046
:102A1000D4F8BC0218B100F0F8FCC4F8BC52002095
:102A200070BD00000A21018000487047F0020020BC
:102A30002221018000487047780200202221018075
:102A4000004870479C020020222101800048704706
:102A5000C002002070B50446102000F0D9FC05002B
:102A60004FF0000612D0C4F8BC52207C90B1052073
:102A7000A4F86200042303228321204600F006FA12
:102A80000120A4F860002E73002070BD0220C4F85D
:102A9000BC6270BD0720EBE713460A4A10B5126806
:102AA00022B190F89C42032C02D009E0032010BD13
:102AB000147B2CB9012414730A46832100F099FA7F
:102AC000002010BD4C000020F8B50446D0F8BC0230
:102AD0000026ADF8006030B10A7812F0600219D01B
:102AE000202A5DD101E00320F8BD4A78022A0ED0E9
:102AF000032A06D00A2A06D00B2A51D18978016010
:102B000052E001223BE04988090A41604CE0012281
:102B1000011D35E04A78062A10D003DC3AB1012ABB
:102B20003ED141E00A2A2FD00B2A39D134E094F863
:102B30009C02032834D10222694621E048882222DF
:102B4000B2EB102F10D1CD884A2D00D94A2519A0FB
:102B500001F0D0F94A22294619A001F0CBF923A0AF
:102B600001F0C8F9224809E02122B2EB102F17D159
:102B70001F48CD881838092D00D909252A46014655
:102B80002046FFF747FD0FE094F89C22032A07D167
:102B9000012200F10801F3E794F89C22032A05D0F2
:102BA0002046FFF7F1FC03263046F8BD89788160A6
:102BB000FAE700005B44454255475D3A20000000BB
:102BC0004C656E6774683A2025642C204849445F40
:102BD0004D4F5553455F5245504F52545F444553F6
:102BE000435F53495A453A25640000000D0A00002E
:102BF000FC02002010B588B10023C0F8B832C0F83C
:102C0000C032C0F8CC3209B1C0F8B412012180F84A
:102C10009C120270BDE8104000F0CEB805A001F093
:102C200069F907A001F066F90BA001F063F9032030
:102C300010BD00005B4552524F525D3A200000002B
:102C4000496E76616C6964204465766963652068C5
:102C5000616E646C650000000D0A000010B5D0F8CC
:102C6000C402FDF79FFDBDE81040FFF7B5BE10B5EB
:102C7000D0F8C402FDF770FDBDE81040FFF7ACBE10
:102C800070B51646044621B194F89C02032841D041
:102C900048E0D4F8941204F114000025022932D13E
:102CA000D0E902318B4206D95A1A82603146204659
:102CB000FFF762FC0FE0994214D14068884211D3BB
:102CC000D4F8981288420DD2002211462046FFF710
:102CD00053FCC4F8985200231A461946204600F0C7
:102CE000E1F810E094F89C02032805D1D4F8B8026A
:102CF000C16809B1204688478021204600F05EF96E
:102D00002046FFF77CFC94F8A00201280AD184F841
:102D1000A05207E0D4F8B80242691AB120469047A1
:102D2000002800D1002070BD10B51346044621B123
:102D300094F89C02032823D02AE0D4F8941204F5D6
:102D4000AA70032924D1D0E9021291420AD98A1A21
:102D50008260C068824200D3024619462046FFF7CF
:102D600003FC15E094F89C02032805D1D4F8B802BE
:102D7000016909B1204688472046FFF758FC07E063
:102D8000D4F8B80282691AB120469047002800D1D1
:102D9000002010BD0020704710B5012180F89C1262
:102DA000D0F8B82212B1526801799047002010BDC6
:102DB000D0F8C402FDF724BD10B5017889BB1A49CB
:102DC0000222C1F80404C0F8C4124FF0A040086009
:102DD000082048600020C1E90320C1E906200862FC
:102DE0004862C86208630846FDF7E4FF08B1FDF7D2
:102DF000C4FA80210C48FDF76EFC402200210A48ED
:102E0000FDF76DFC202201210748FDF768FC202218
:102E100002210548FDF763FC402203210248FDF72B
:102E20005EFC002010BD0000681600200A0601F0BC
:102E30007F01D0F8C402C1EBC10100EB810002D5D3
:102E400090F83E00704790F8FE01704710B5D0F83A
:102E5000B82222B190F89C32032B02D004E0032068
:102E600010BD126A02B19047002010BD10B5D0F815
:102E7000B82222B190F89C32032B02D004E0032048
:102E800010BD526A02B19047002010BD10B51C461B
:102E90001346D0F8C4022246FDF7BBFCBDE8104043
:102EA000FFF79ABD10B5D0F8C402FDF7E2FCBDE80B
:102EB0001040FFF791BD70B50125044680F89C5283
:102EC0000020C4F894026060C4F8A402D4F8B802E8
:102ED000E0B1D4F8BC1221B1426812B10021204601
:102EE00090470022402311462046FFF7CFFF40269F
:102EF000A4F864513346002280212046C4F8606162
:102F0000FFF7C4FFA5840020266270BD032070BDBA
:102F100090F89C12042903D190F89D1280F89C121D
:102F20000020704710B5D0F8B81221B190F89C225B
:102F3000032A02D004E0032010BDC96901B188470B
:102F4000002010BD01740020704710B5D0F8C402F5
:102F5000FEF702F8BDE81040FFF73EBD70B504462D
:102F600000F2AA20054600F04DF80120C4F89402B2
:102F7000B4F8B002C4F8980294F8AA0210F01F0145
:102F80000AD001290ED0022912D000F0800120467B
:102F9000BDE8704000F012B829462046BDE87040F8
:102FA00000F0E0B829462046BDE8704000F004BAC1
:102FB00029462046BDE8704000F05EB910B5D0F853
:102FC000C402FDF77AFCBDE81040FFF705BD10B55F
:102FD000D0F8C402FDF7DBFFBDE81040FFF7FCBCF2
:102FE00090F89C1280F89D12042180F89C12002019
:102FF000704710B5D0F8C402FDF799FCBDE8104049
:10300000FFF7EABC70B5054611F8010B2870087887
:1030100068704C1C2046FEF734FD6880A41C2046D6
:10302000FEF72FFDA880A01CFEF72BFDE88070BDE9
:1030300038B504460020ADF8000049B1C4F8B81214
:10304000C96A19B168468847C4F8CC02002038BD67
:1030500005A000F04FFF07A000F04CFF0BA000F010
:1030600049FF032038BD00005B4552524F525D3A84
:1030700020000000496E76616C696420436C6173C6
:10308000732068616E646C65000000000D0A00002A
:1030900002460320D2F8B832002B02D01B6810463B
:1030A000184770472DE9F0410F462C4E89780025CE
:1030B00004463170012906D939462046FFF764FAE3
:1030C0000320BDE8F08194F89C0202280CD003286C
:1030D0001DD039462046FFF757FA31782046FEF7D3
:1030E0005CFF03252846ECE799B320466160FFF7B3
:1030F000CFFF050004D039462046FFF745FAF1E737
:103100002046FFF794FA032084F89C02EAE74FF088
:103110000208C1B1606888421BD0C1B22046FEF7E8
:103120003CFF317820466160FFF7B2FF050010D008
:1031300039462046FFF728FA21792046FEF72DFF71
:1031400084F89C82CEE784F89C8220466160FEF77A
:1031500024FF2046FFF76BFAC4E700003C02002082
:10316000FFF735BF2DE9F0410A78002512F0600223
:1031700008D0202A01D0402A71D1D0F8B822926814
:10318000904731E04B78002201260A2B67D2DFE816
:1031900003F0415E6658660805662D29FFF75EFB61
:1031A0005FE004468888D8B9C888C8B948888028AC
:1031B00016D200F07F0794F89C02032810D084F800
:1031C0009E7239462046FFF7C0FE2046FFF72FFAD1
:1031D0001FB1022084F89C0243E084F89C6240E026
:1031E00020463CE0FFF75EFF05463AE0CB88012B26
:1031F00035D190F89C32012B04D0022B02D0032B46
:103200002DD104E08260012200F1080116E00122C4
:10321000011D13E090F89C22012A03D0022A01D05C
:10322000032A1CD1CA88022A19D1C660D0F8A41278
:1032300009B10321C160022200F10C01FFF7EAF994
:103240000FE0498801290CD1C0F8A46211E090F880
:103250009C32012B08D0022B06D0032B04D0FFF7A1
:1032600093F92846BDE8F08149880129F9D1C0F8D1
:10327000A422FFF7DCF9F4E72DE9F0410D460446FE
:1032800028780026097910F060000BD0202801D0A2
:1032900040286DD1D4F8B80229468268204690476C
:1032A000064686E06878A8B3012822D003287CD19E
:1032B00094F89C02022802D0032876D10BE0002962
:1032C00073D0802971D02046FFF778FE80212046F8
:1032D000FFF774FE6DE0688838B931B1802904D0F9
:1032E000E88810B92046FFF769FE2046FFF79FF9EE
:1032F0005FE094F89C020228E1D0032855D1688849
:10330000A8BB480602D02046FFF7A8FC2046FFF7DE
:103310008EF9BFE7FFE794F89C020027022802D04D
:10332000032842D111E009B180293ED1080601F0FD
:103330007F0000EB800004EB800101D5143101E037
:1033400001F5AA7102220F602BE0080601F00F00C0
:1033500000EB800004EB80000BD5808C40B101F0C5
:103360007F0000EB800004EB800514350CE020E0CA
:103370001BE0B0F86401C0B101F07F0000EB8000F9
:1033800004EB800505F5AA7541B1802906D02046D9
:10339000FFF74CFD10B10120286000E02F600222F1
:1033A00029462046FFF736F903E029462046FFF775
:1033B000EBF83046BDE8F08170B506460878002489
:1033C0000D4610F0600003D0202801D0402817D10E
:1033D00096F89C02012803D0022801D003280FD1BF
:1033E000287904280CD8D6F8B8028268304690476D
:1033F0000446E888204306D13046FFF718F902E07A
:103400003046FFF7C1F8204670BD00F0DBBF00007A
:1034100000F0030110B50844001D01F01DF800285C
:1034200009D105A000F066FD06A000F063FD0EA026
:1034300000F060FD002010BD5B4552524F525D3AD6
:1034400020000000555342445F7374617469635FE8
:103450006D616C6C6F633A206D616C6C6F6320669C
:1034600061696C65640A00000D0A000070B50A7895
:10347000012302F00F054E78AB401B4CD0F81C58CE
:10348000012E17D045EA0343C0F81C3800EB421068
:10349000D0F8002B12040BD4D0F8002B0B89C9787C
:1034A000C3F30A031A4344EA81410A43C0F8002BDC
:1034B000002070BD9BB21D43C0F81C5800EB4210A9
:1034C000D0F800391B04F3D4D0F800390D89C9783D
:1034D000C5F30A0589042B4341EA82510B43234378
:1034E000C0F80039E4E7000000800010D0F80019AF
:1034F0006FF30A01C0F80019D0F8041841F4807184
:10350000C0F804180020704770B5044606990A9E5A
:10351000049D0D98012916D0E06840F04000E0605D
:10352000204600F02BF8A16B1EB321F48031A1637B
:10353000012D07D1A16841F00601A160A16841F009
:103540002001A16070BDA16B21F48031A163E1680D
:10355000094A1140E160E16821F44011E16001286D
:1035600003D1E06840F48010E060204600F006F8E7
:10357000DEE741F48031DAE7BFFFBDFF08B5002286
:103580000D490092009B5B1C00938B420CD8036991
:10359000002BF7DA0092026942F001020261009A00
:1035A000521C00928A4201D9032008BD0269D20749
:1035B000F5D1002008BD0000400D030030B54C7867
:1035C0000A78012300EB4212012C2CD0D2F8004BD8
:1035D000002C0BDAD2F8004B44F00064C2F8004B28
:1035E000D2F8004B44F08044C2F8004BD0F83C586D
:1035F0000C7804F00F0403FA04F425EA0444C0F83C
:103600003C48D0F81C48097801F00F018B4024EAAF
:103610000341C0F81C18D2F8000B19490840C2F841
:10362000000B002030BDD2F80049002C0BDAD2F894
:10363000004944F00064C2F80049D2F8004944F05F
:103640008044C2F80049D0F83C480D7805F00F05D9
:1036500003FA05F5ADB2AC43C0F83C48D0F81C48BD
:10366000097801F00F018B4099B28C43C0F81C48D7
:10367000D2F8000903490840C2F80009D1E7000068
:103680000078F3EF007833ECD0F8001E21F003014E
:10369000C0F8001ED0F8041821F00201C0F8041888
:1036A00000207047D0F8001E21F00301C0F8001E72
:1036B000D0F8041841F00201C0F804180020704747
:1036C0002DE9F04F00250E460446DDF82CC0DDF84C
:1036D00024B0109F2846294604EB8002C2F804114A
:1036E000401C0F28F8D32046C7B1806B20F400128D
:1036F000A263A06B40F40022A26308468846C4F887
:10370000000ED4F800182046C4F80018BCF1010FD0
:1037100016D0D0F8001841F0030116E0D0F80408E4
:1037200040F00202C4F80428A06B40F40012A26327
:10373000A06B20F40022A263A06B20F48022DBE7C0
:10374000D0F800180BB141F00101C0F800181021A9
:1037500000F094FA00B10125204600F07BFA00B198
:1037600001254046C4F81088C4F81488C4F81C88A1
:1037700000214FF000694FF0904A4FF67F3314E07C
:1037800004EB4112D2F800C9BCF1000F06DA11B106
:10379000C2F800A904E0C4F8009901E0C2F80009E9
:1037A000C2F81009C2F80839491C8E42E8D8002135
:1037B00015E000BF04EB4112D2F800CBBCF1000FC2
:1037C00006DA11B1C2F800AB04E0C4F8009B01E0D6
:1037D000C2F8000BC2F8100BC2F8083B491C8E421D
:1037E000E8D8D4F8101821F48072C4F81028A06129
:1037F0006FF080406061BBF1000F03D1A06940F021
:103800001000A061A06909490843A0610C9818B193
:10381000A06940F00800A061012F03D1A06904490C
:103820000843A0612846BDE8F08F000000383C80C6
:1038300004000040816821F0010181600020704790
:1038400070B50D784E78434CEBB200EB4313012E6C
:103850001FD0D3F8100B6FF31200C3F8100BD3F87E
:10386000100B2040C3F8100B486908B18868486104
:10387000D3F8100B40F40020C3F8100BD3F8100B52
:103880008C68C4F312042043C3F8100B012A55D0EE
:1038900058E04E69002ED3F8106932D06FF312064B
:1038A000C3F81069D3F810692640C3F810694E694F
:1038B0008C68A64200D94C61D3F8104944F4002426
:1038C000C3F81049D3F810494E69C6F312063443C1
:1038D000C3F81049012A22D000EB4512D2F8003972
:1038E00043F00443C2F800394A6932B3D0F83428AF
:1038F000097801F00F03012199400A43C0F83428E8
:1039000026E02640C3F81069D3F8104944F4002497
:10391000C3F81049D3F810496FF31204D8E70969C6
:1039200019B100EB4512C2F8141900EB4510D0F89C
:10393000001941F00441C0F8001909E0C86808B155
:10394000C3F8140BD3F8000B40F00440C3F8000B8D
:10395000002070BDFFFF07E010B5036C134CA342BD
:1039600003D9D0F8003B002B1EDB0023C0F8103B2E
:10397000D0F8103B43F40023C0F8103BD0F8103BC4
:1039800043F01803C0F8103BD0F8103B43F0C0439D
:10399000C0F8103B012907D1C0F8142BD0F8001B48
:1039A00041F08021C0F8001B002010BD0A30544FA8
:1039B0004A780B78012A00EB43100BD0D0F8002B8B
:1039C00022F40012C0F8002BC978032914D0022970
:1039D00012D017E0D0F8002922F40012C0F8002914
:1039E000C978032901D002290CD1D0F8001941F07F
:1039F0008051C0F8001905E0D0F8001B41F080515B
:103A0000C0F8001B002070470A784B78D1B200EB59
:103A10004110012B12D0D0F8001B002906DB2AB17F
:103A2000D0F8001B21F08041C0F8001BD0F8001B2B
:103A300041F40011C0F8001B00207047D0F80019B5
:103A4000002906DB2AB1D0F8001921F08041C0F826
:103A50000019D0F8001941F40011C0F80019EBE783
:103A6000F8B50C784F78774DE3B26FF0604600EB15
:103A70004313012F26D0D3F8104B6FF31204C3F871
:103A8000104BD3F8104B2C40C3F8104B4C69002C52
:103A900074D08D682C44641EB4FBF5F4D3F8105B2D
:103AA000A4B206EAC4463543C3F8105BD3F8105BF2
:103AB0008E686643C6F312042543C3F8105B012ADF
:103AC00071D0A6E04F691FB3D3F810796FF31207D6
:103AD000C3F81079D3F810792F40C3F810794F69E3
:103AE0008D682F447F1EB7FBF5F506EAC545D3F870
:103AF00010693543C3F81059D3F810594E69C6F30D
:103B000012063543C3F81059CD78012D10D01BE0B3
:103B1000D3F810692E40C3F81069D3F8105945F452
:103B20000025C3F81059D3F810596FF3120509E0B6
:103B3000D3F8105925F0C045C3F81059D3F81059DF
:103B400045F00055C3F81059012A18D000EB441372
:103B5000D3F8004944F00444C3F80049CC78012C60
:103B60002FD04A6962B3D0F83428097801F00F03E6
:103B7000012199400A43C0F8342860E036E00A6920
:103B80001AB100EB4413C3F81429C97801290FD1E5
:103B9000D0F80818C90500EB4411D1F8002903D466
:103BA00042F0005202E030E042F08052C1F80029B9
:103BB00000EB4410D0F8001941F00441C0F800199E
:103BC0003DE0D0F80848E405D3F8004902D444F0B9
:103BD000005401E044F08054C3F8004900928A8AFE
:103BE00093B20A78C96800F06FF928E0D3F8104B57
:103BF0008D68C5F312052C43C3F8104BD3F8104B56
:103C000044F40024C3F8104B59E7CA680AB1C3F85A
:103C1000142BC97801290CD1D0F80808C005D3F8B5
:103C2000000B02D440F0005001E040F08050C3F897
:103C3000000BD3F8000B40F00440C3F8000B002049
:103C4000F8BD0000FFFF07E0816841F001018160DD
:103C50000020704708B5002100911021016106493C
:103C6000009A521C00928A4201D9032008BD0269C1
:103C7000D206F5D4002008BD400D030008B500228F
:103C80000092202242EA811101610649009A521CE9
:103C900000928A4201D9032008BD02699206F5D438
:103CA000002008BD400D0300D0F8080810F0060001
:103CB00004D0022803D0062801D00F20704702202C
:103CC0007047406900F001007047D0F81818D0F82C
:103CD0001C08084080B27047D0F81818D0F81C08AB
:103CE0000840000C704710B5D0F81038D0F83428D0
:103CF00001F00F0400EB4110E24002F00102D0F8A5
:103D0000080943EAC212104010BD00EB4111D1F87E
:103D1000081BD0F8140808407047416980690840C2
:103D2000704730B503460846940802F003010022AC
:103D300003F5805303E01D6840F8045B521CA24267
:103D4000F9D300290BD01C680022D50024FA05F312
:103D5000491E521C090400F8013B090CF5D130BD85
:103D600070B50446C068002520F0C040E06001291D
:103D700001D079B120E0E06840F00050E06001201F
:103D8000FCF7FEFA60696D1C10F0010F10D1322DA6
:103D9000F5D30DE0E06840F08040E0600120FCF7E2
:103DA000EFFA60696D1C10F0010F01D0322DF5D3D0
:103DB000322D01D0002070BD012070BDD0F8002848
:103DC00022F4FE62C0F80028D0F800284FF4FE6309
:103DD00003EA01110A43C0F80028002070470000E0
:103DE000022A3ED1264A274B0A449A4201D20F2189
:103DF00038E0254A254B0A449A4201D20E2131E08F
:103E0000234A244B0A449A4201D20D212AE0224A35
:103E1000224B0A449A4201D20C2123E0204A214B32
:103E20000A449A4201D20B211CE01F4A1F4B0A444C
:103E30009A4201D20A2115E01D4A1E4B0A449A42B9
:103E40000FD31D4A1D4B0A449A4201D2082109E0B2
:103E50001B4A11441B4A914201D2072102E006216C
:103E600000E00921C26822F47052C260C2684FF4B7
:103E7000705303EA81210A43C260002070470000AA
:103E8000405327FF00350C00401E1BFF40420F002F
:103E900000DC0BFF804F1200808CF9FE20D613004F
:103EA00060B6E5FE60E3160000D3CEFE40771B004F
:103EB000C05BB3FEC091210000CA91FE207538009E
:103EC000E05459FEE09C410010B5029C74B9DB1C23
:103ED0009C0800EB0230002300F5805004E000BF96
:103EE00051F8042B02605B1CA342F9D3002010BDE3
:103EF000FEE700000FB4054B10B503A9044A029871
:103F000000F028F810BC5DF814FB0000AD43000879
:103F1000480300200907090E002804DB00F1E02017
:103F200080F80014704700F00F0000F1E02080F8E6
:103F3000141D704702E008C8121F08C1002AFAD1F8
:103F400070477047002001E001C1121F002AFBD119
:103F5000704700002DE9FF4F8DB00F460546002643
:103F600006E025280BD0DDE90F1290476D1C761C6A
:103F700028780028F5D111B03046BDE8F08F002434
:103F8000A246A1460122E94900E0044315F8013F99
:103F9000203B02FA03F00842F7D128782A2810D0F3
:103FA0006FF02F022878A0F13001092914D80AEB0C
:103FB0008A0102EB410144F0020400EB010A6D1C8E
:103FC000F0E701CF5FEA000A03D544F40054CAF1D8
:103FD000000A44F002046D1C28782E2817D115F829
:103FE000010F44F004042A280ED06FF02F02287825
:103FF000A0F1300109290AD809EB890102EB41013E
:1040000000EB01096D1CF2E757F8049B6D1C287842
:104010006C280FD006DC4C2817D068280DD06A28F1
:1040200014D104E0742810D07A280FD10DE044F4A4
:1040300000140AE044F4801401E044F44014697868
:10404000814202D104F580146D1C6D1C28786E2805
:104050001ED00CDC632830D004DC00288BD058281C
:1040600011D19FE0642867D069280CD164E07328DF
:104070002DD004DC6F2872D0702804D194E075280C
:104080006ED078286DD0DDE90F129047761C4BE199
:10409000C4F30250022806D0032809D0042801CF17
:1040A00009D0066040E101CFF117C0E900613BE1B2
:1040B00001CF068038E1067036E117F8040B8DF861
:1040C000000000208DF80100EB46012003E057F8C6
:1040D00004BB4FF0FF3061074FF0000102D40DE048
:1040E00008F10101884649450FDA8045F8DB1BF8E5
:1040F00008100029F4D108E008F101018846814246
:10410000FADB1BF808100029F6D1DDE90F23AAEB32
:1041100008008146214600F031F9304400EB0806E2
:1041200004E0DDE90F121BF8010B9047B8F101081C
:10413000F7D221464846F2E00A21C4F302524FF07A
:10414000000B0891022A04D001CFC117032A09D01D
:104150000AE0FF1D27F00707F7E8020108E02CE05E
:104160001EE01FE000B2C117042A01D140B2C117FE
:10417000021E71F1000206DA0023D0EB030063EBAC
:1041800001012D2202E0220504D52B228DF82420E6
:10419000012203E0E20701D02022F7E7904653E036
:1041A0000A210BE0102109E010214FF0000B44F030
:1041B00004044FF00809089103E008214FF0000BB8
:1041C0000891C4F30252022A04D001CF0021032A2D
:1041D00006D006E0FF1D27F00707F7E8020103E01D
:1041E00080B2042A00D1C0B24FF0000822072BD5BC
:1041F0002A78702A07D0DDF820C08CF0100C5CEA19
:104200000B0C05D00EE040228DF82420012208E09E
:1042100050EA010306D030238DF824308DF8252094
:1042200002229046089B83F0080353EA0B030BD14C
:1042300050EA010201D1620706D530228DF8242010
:104240004FF00108A9F101092A78582A04D038A2B0
:104250000B9208AA0A920BE03AA2F9E75B46089A89
:10426000FBF7B0FF0B9B9B5C0A9A521E0A921370DD
:1042700050EA0102F2D10A98ADEB000000F1200BE8
:10428000600702D524F4803401E04FF00109D945DC
:1042900002DDA9EB0B0000E0002000EB0B01414424
:1042A0000890AAEB010AE00306D4DDE90F232146BA
:1042B000504600F063F806444FF0000908E009A9F1
:1042C00011F80900DDE90F12904709F10109761C88
:1042D000C145F4DBE0030CD5DDE90F232146504650
:1042E00000F04CF8064404E0DDE90F12302090475E
:1042F000761C0899481E08900029F5DC08E00A9809
:104300000A990078491C0A91DDE90F129047761C42
:10431000BBF10001ABF1010BF1DC21465046DDE9B8
:104320000F2300F019F806446D1C21E6092801004E
:10433000303132333435363738396162636465661B
:1043400000000000303132333435363738394142DD
:1043500043444546000000002DE9F0410446002595
:104360001E461746880404D405E039462020B0478D
:104370006D1C641EF9D52846BDE8F0812DE9F04199
:10438000044600251E469046C80301D5302700E0AC
:104390002027880404D505E041463846B0476D1C07
:1043A000641EF9D52846BDE8F081000013B54FF62C
:1043B000FF73012269460248FDF744F900981CBDCD
:1043C0005413002010B5002821D0114B0022001FEB
:1043D000196803E0814203D80A4649680029F9D1E7
:1043E00052B11368841A9C4204D1006818441060CA
:1043F000104602E0506000E0186039B102680B1A04
:10440000934203D10B681A4402604968416010BDB1
:104410004C03002008B5FCF7CBF8FDF739FBFDF79E
:1044200087F9FDF79BF9FDF7B5F900245FF00A0560
:104430008DF800408DF801508DF802408DF8034052
:10444000042269460348FEF727FB0A20FBF798FF82
:10445000EEE7000098130020F0B50B30154D20F06A
:1044600007010024144A0FE003688B420BD38B42F0
:1044700005D95E1A43184768C3E9006700E043683E
:10448000136002C004E0021D10680028ECD1204631
:10449000002802D1286808B10020F0BD064A07486C
:1044A0001060074A121A22F00702C0E90024012016
:1044B0002860D7E7500300204C030020741C002024
:1044C000703C002000000000000000000102030416
:1044D000060708090000000001020304FC4400086C
:1044E0000000002054030000D0020008B846000875
:1044F000540300201C3D0000443F0008100639030F
:1045000000083504123108125D04127504100EED16
:10451000210008152000080D230008000112B50C29
:104520004007AD1F0008E91F10A101438D2124831E
:104530001D211C501509026C000301008096080B18
:1045400000010301020009040009101721110100F4
:1045500001224A0007058303040005080B0102023B
:10456000020121111721091008052400100105245A
:104570002510170424020205240601020705820300
:1045800008001009040200020A5E20060705010265
:10459000400722810710050A060002871340018C9C
:1045A000100665260008D904100629270008A9046A
:1045B000100625280008451412B514101504030927
:1045C0000412010002EF02014083042A5700020195
:1045D00002A4000517001A03000121546210E9B378
:1045E00024F46C100409024343300400C032DC019F
:1045F00013BB730001BB8201BB4280BB023A804403
:1046000081FF200400090788023B04441006E91DCD
:104610000008430447DD1EF0128B0CC407B91C00D0
:1046200008191DF012D12422C5282120511C880B05
:10463000552A0008FD290008C92A000B10F1292875
:10464000123D2812312C124908122504080A1709B4
:10465000022200010100E0321C2520011D2402215C
:1046600007242148615ACA0030102105010902A11E
:10467000010901A10005091901290315002501956A
:10468000037501810295017505810120201730090C
:104690003109381581257F750895038106C0093CCD
:1046A00005FF090129C80E75019502B1227506950D
:0846B00001B101C0440000004B
:040000050800018965
:00000001FF
